{
  "_format": "hh-sol-artifact-1",
  "contractName": "LiquidityGeneratorToken",
  "sourceName": "contracts/launchpad/LiquidityGeneratorToken.sol",
  "abi": [
    {
      "inputs": [
        {
          "internalType": "string",
          "name": "name_",
          "type": "string"
        },
        {
          "internalType": "string",
          "name": "symbol_",
          "type": "string"
        },
        {
          "internalType": "uint256",
          "name": "totalSupply_",
          "type": "uint256"
        },
        {
          "internalType": "address",
          "name": "router_",
          "type": "address"
        },
        {
          "internalType": "address",
          "name": "charityAddress_",
          "type": "address"
        },
        {
          "internalType": "uint16",
          "name": "taxFeeBps_",
          "type": "uint16"
        },
        {
          "internalType": "uint16",
          "name": "liquidityFeeBps_",
          "type": "uint16"
        },
        {
          "internalType": "uint16",
          "name": "charityFeeBps_",
          "type": "uint16"
        },
        {
          "internalType": "address",
          "name": "serviceFeeReceiver_",
          "type": "address"
        },
        {
          "internalType": "uint256",
          "name": "serviceFee_",
          "type": "uint256"
        }
      ],
      "stateMutability": "payable",
      "type": "constructor"
    },
    {
      "anonymous": false,
      "inputs": [
        {
          "indexed": true,
          "internalType": "address",
          "name": "owner",
          "type": "address"
        },
        {
          "indexed": true,
          "internalType": "address",
          "name": "spender",
          "type": "address"
        },
        {
          "indexed": false,
          "internalType": "uint256",
          "name": "value",
          "type": "uint256"
        }
      ],
      "name": "Approval",
      "type": "event"
    },
    {
      "anonymous": false,
      "inputs": [
        {
          "indexed": false,
          "internalType": "uint256",
          "name": "minTokensBeforeSwap",
          "type": "uint256"
        }
      ],
      "name": "MinTokensBeforeSwapUpdated",
      "type": "event"
    },
    {
      "anonymous": false,
      "inputs": [
        {
          "indexed": true,
          "internalType": "address",
          "name": "previousOwner",
          "type": "address"
        },
        {
          "indexed": true,
          "internalType": "address",
          "name": "newOwner",
          "type": "address"
        }
      ],
      "name": "OwnershipTransferred",
      "type": "event"
    },
    {
      "anonymous": false,
      "inputs": [
        {
          "indexed": false,
          "internalType": "uint256",
          "name": "tokensSwapped",
          "type": "uint256"
        },
        {
          "indexed": false,
          "internalType": "uint256",
          "name": "ethReceived",
          "type": "uint256"
        },
        {
          "indexed": false,
          "internalType": "uint256",
          "name": "tokensIntoLiqudity",
          "type": "uint256"
        }
      ],
      "name": "SwapAndLiquify",
      "type": "event"
    },
    {
      "anonymous": false,
      "inputs": [
        {
          "indexed": false,
          "internalType": "uint256",
          "name": "amount",
          "type": "uint256"
        }
      ],
      "name": "SwapAndLiquifyAmountUpdated",
      "type": "event"
    },
    {
      "anonymous": false,
      "inputs": [
        {
          "indexed": true,
          "internalType": "address",
          "name": "owner",
          "type": "address"
        },
        {
          "indexed": true,
          "internalType": "address",
          "name": "token",
          "type": "address"
        },
        {
          "indexed": false,
          "internalType": "enum TokenType",
          "name": "tokenType",
          "type": "uint8"
        },
        {
          "indexed": false,
          "internalType": "uint256",
          "name": "version",
          "type": "uint256"
        }
      ],
      "name": "TokenCreated",
      "type": "event"
    },
    {
      "anonymous": false,
      "inputs": [
        {
          "indexed": true,
          "internalType": "address",
          "name": "from",
          "type": "address"
        },
        {
          "indexed": true,
          "internalType": "address",
          "name": "to",
          "type": "address"
        },
        {
          "indexed": false,
          "internalType": "uint256",
          "name": "value",
          "type": "uint256"
        }
      ],
      "name": "Transfer",
      "type": "event"
    },
    {
      "inputs": [],
      "name": "MAX_FEE",
      "outputs": [
        {
          "internalType": "uint256",
          "name": "",
          "type": "uint256"
        }
      ],
      "stateMutability": "view",
      "type": "function"
    },
    {
      "inputs": [],
      "name": "VERSION",
      "outputs": [
        {
          "internalType": "uint256",
          "name": "",
          "type": "uint256"
        }
      ],
      "stateMutability": "view",
      "type": "function"
    },
    {
      "inputs": [],
      "name": "_charityAddress",
      "outputs": [
        {
          "internalType": "address",
          "name": "",
          "type": "address"
        }
      ],
      "stateMutability": "view",
      "type": "function"
    },
    {
      "inputs": [],
      "name": "_charityFee",
      "outputs": [
        {
          "internalType": "uint256",
          "name": "",
          "type": "uint256"
        }
      ],
      "stateMutability": "view",
      "type": "function"
    },
    {
      "inputs": [],
      "name": "_liquidityFee",
      "outputs": [
        {
          "internalType": "uint256",
          "name": "",
          "type": "uint256"
        }
      ],
      "stateMutability": "view",
      "type": "function"
    },
    {
      "inputs": [],
      "name": "_taxFee",
      "outputs": [
        {
          "internalType": "uint256",
          "name": "",
          "type": "uint256"
        }
      ],
      "stateMutability": "view",
      "type": "function"
    },
    {
      "inputs": [
        {
          "internalType": "address",
          "name": "owner",
          "type": "address"
        },
        {
          "internalType": "address",
          "name": "spender",
          "type": "address"
        }
      ],
      "name": "allowance",
      "outputs": [
        {
          "internalType": "uint256",
          "name": "",
          "type": "uint256"
        }
      ],
      "stateMutability": "view",
      "type": "function"
    },
    {
      "inputs": [
        {
          "internalType": "address",
          "name": "spender",
          "type": "address"
        },
        {
          "internalType": "uint256",
          "name": "amount",
          "type": "uint256"
        }
      ],
      "name": "approve",
      "outputs": [
        {
          "internalType": "bool",
          "name": "",
          "type": "bool"
        }
      ],
      "stateMutability": "nonpayable",
      "type": "function"
    },
    {
      "inputs": [
        {
          "internalType": "address",
          "name": "account",
          "type": "address"
        }
      ],
      "name": "balanceOf",
      "outputs": [
        {
          "internalType": "uint256",
          "name": "",
          "type": "uint256"
        }
      ],
      "stateMutability": "view",
      "type": "function"
    },
    {
      "inputs": [],
      "name": "decimals",
      "outputs": [
        {
          "internalType": "uint8",
          "name": "",
          "type": "uint8"
        }
      ],
      "stateMutability": "view",
      "type": "function"
    },
    {
      "inputs": [
        {
          "internalType": "address",
          "name": "spender",
          "type": "address"
        },
        {
          "internalType": "uint256",
          "name": "subtractedValue",
          "type": "uint256"
        }
      ],
      "name": "decreaseAllowance",
      "outputs": [
        {
          "internalType": "bool",
          "name": "",
          "type": "bool"
        }
      ],
      "stateMutability": "nonpayable",
      "type": "function"
    },
    {
      "inputs": [
        {
          "internalType": "uint256",
          "name": "tAmount",
          "type": "uint256"
        }
      ],
      "name": "deliver",
      "outputs": [],
      "stateMutability": "nonpayable",
      "type": "function"
    },
    {
      "inputs": [
        {
          "internalType": "address",
          "name": "account",
          "type": "address"
        }
      ],
      "name": "excludeFromFee",
      "outputs": [],
      "stateMutability": "nonpayable",
      "type": "function"
    },
    {
      "inputs": [
        {
          "internalType": "address",
          "name": "account",
          "type": "address"
        }
      ],
      "name": "excludeFromReward",
      "outputs": [],
      "stateMutability": "nonpayable",
      "type": "function"
    },
    {
      "inputs": [
        {
          "internalType": "address",
          "name": "account",
          "type": "address"
        }
      ],
      "name": "includeInReward",
      "outputs": [],
      "stateMutability": "nonpayable",
      "type": "function"
    },
    {
      "inputs": [
        {
          "internalType": "address",
          "name": "spender",
          "type": "address"
        },
        {
          "internalType": "uint256",
          "name": "addedValue",
          "type": "uint256"
        }
      ],
      "name": "increaseAllowance",
      "outputs": [
        {
          "internalType": "bool",
          "name": "",
          "type": "bool"
        }
      ],
      "stateMutability": "nonpayable",
      "type": "function"
    },
    {
      "inputs": [
        {
          "internalType": "address",
          "name": "account",
          "type": "address"
        }
      ],
      "name": "isExcludedFromFee",
      "outputs": [
        {
          "internalType": "bool",
          "name": "",
          "type": "bool"
        }
      ],
      "stateMutability": "view",
      "type": "function"
    },
    {
      "inputs": [
        {
          "internalType": "address",
          "name": "account",
          "type": "address"
        }
      ],
      "name": "isExcludedFromReward",
      "outputs": [
        {
          "internalType": "bool",
          "name": "",
          "type": "bool"
        }
      ],
      "stateMutability": "view",
      "type": "function"
    },
    {
      "inputs": [],
      "name": "name",
      "outputs": [
        {
          "internalType": "string",
          "name": "",
          "type": "string"
        }
      ],
      "stateMutability": "view",
      "type": "function"
    },
    {
      "inputs": [],
      "name": "owner",
      "outputs": [
        {
          "internalType": "address",
          "name": "",
          "type": "address"
        }
      ],
      "stateMutability": "view",
      "type": "function"
    },
    {
      "inputs": [
        {
          "internalType": "uint256",
          "name": "tAmount",
          "type": "uint256"
        },
        {
          "internalType": "bool",
          "name": "deductTransferFee",
          "type": "bool"
        }
      ],
      "name": "reflectionFromToken",
      "outputs": [
        {
          "internalType": "uint256",
          "name": "",
          "type": "uint256"
        }
      ],
      "stateMutability": "view",
      "type": "function"
    },
    {
      "inputs": [],
      "name": "renounceOwnership",
      "outputs": [],
      "stateMutability": "nonpayable",
      "type": "function"
    },
    {
      "inputs": [
        {
          "internalType": "uint256",
          "name": "charityFeeBps",
          "type": "uint256"
        }
      ],
      "name": "setCharityFeePercent",
      "outputs": [],
      "stateMutability": "nonpayable",
      "type": "function"
    },
    {
      "inputs": [
        {
          "internalType": "uint256",
          "name": "liquidityFeeBps",
          "type": "uint256"
        }
      ],
      "name": "setLiquidityFeePercent",
      "outputs": [],
      "stateMutability": "nonpayable",
      "type": "function"
    },
    {
      "inputs": [
        {
          "internalType": "uint256",
          "name": "_amount",
          "type": "uint256"
        }
      ],
      "name": "setSwapBackSettings",
      "outputs": [],
      "stateMutability": "nonpayable",
      "type": "function"
    },
    {
      "inputs": [
        {
          "internalType": "uint256",
          "name": "taxFeeBps",
          "type": "uint256"
        }
      ],
      "name": "setTaxFeePercent",
      "outputs": [],
      "stateMutability": "nonpayable",
      "type": "function"
    },
    {
      "inputs": [],
      "name": "swapAndLiquifyEnabled",
      "outputs": [
        {
          "internalType": "bool",
          "name": "",
          "type": "bool"
        }
      ],
      "stateMutability": "view",
      "type": "function"
    },
    {
      "inputs": [],
      "name": "symbol",
      "outputs": [
        {
          "internalType": "string",
          "name": "",
          "type": "string"
        }
      ],
      "stateMutability": "view",
      "type": "function"
    },
    {
      "inputs": [
        {
          "internalType": "uint256",
          "name": "rAmount",
          "type": "uint256"
        }
      ],
      "name": "tokenFromReflection",
      "outputs": [
        {
          "internalType": "uint256",
          "name": "",
          "type": "uint256"
        }
      ],
      "stateMutability": "view",
      "type": "function"
    },
    {
      "inputs": [],
      "name": "totalFees",
      "outputs": [
        {
          "internalType": "uint256",
          "name": "",
          "type": "uint256"
        }
      ],
      "stateMutability": "view",
      "type": "function"
    },
    {
      "inputs": [],
      "name": "totalSupply",
      "outputs": [
        {
          "internalType": "uint256",
          "name": "",
          "type": "uint256"
        }
      ],
      "stateMutability": "view",
      "type": "function"
    },
    {
      "inputs": [
        {
          "internalType": "address",
          "name": "recipient",
          "type": "address"
        },
        {
          "internalType": "uint256",
          "name": "amount",
          "type": "uint256"
        }
      ],
      "name": "transfer",
      "outputs": [
        {
          "internalType": "bool",
          "name": "",
          "type": "bool"
        }
      ],
      "stateMutability": "nonpayable",
      "type": "function"
    },
    {
      "inputs": [
        {
          "internalType": "address",
          "name": "sender",
          "type": "address"
        },
        {
          "internalType": "address",
          "name": "recipient",
          "type": "address"
        },
        {
          "internalType": "uint256",
          "name": "amount",
          "type": "uint256"
        }
      ],
      "name": "transferFrom",
      "outputs": [
        {
          "internalType": "bool",
          "name": "",
          "type": "bool"
        }
      ],
      "stateMutability": "nonpayable",
      "type": "function"
    },
    {
      "inputs": [
        {
          "internalType": "address",
          "name": "newOwner",
          "type": "address"
        }
      ],
      "name": "transferOwnership",
      "outputs": [],
      "stateMutability": "nonpayable",
      "type": "function"
    },
    {
      "inputs": [],
      "name": "uniswapV2Pair",
      "outputs": [
        {
          "internalType": "address",
          "name": "",
          "type": "address"
        }
      ],
      "stateMutability": "view",
      "type": "function"
    },
    {
      "inputs": [],
      "name": "uniswapV2Router",
      "outputs": [
        {
          "internalType": "contract IUniswapV2Router02",
          "name": "",
          "type": "address"
        }
      ],
      "stateMutability": "view",
      "type": "function"
    },
    {
      "stateMutability": "payable",
      "type": "receive"
    }
  ],
  "bytecode": "0x608060405260405162002d6d38038062002d6d83398101604081905262000026916200066c565b620000313362000510565b6001600160a01b038616620000d15761ffff831615620000d15760405162461bcd60e51b815260206004820152604a60248201527f43616e742073657420626f74682063686172697479206164647265737320746f60448201527f2061646472657373203020616e6420636861726974792070657263656e74206d60648201526906f7265207468616e20360b41b608482015260a4015b60405180910390fd5b6109c483620000e1868862000771565b620000ed919062000771565b61ffff161115620001415760405162461bcd60e51b815260206004820152601560248201527f546f74616c20666565206973206f7665722032352500000000000000000000006044820152606401620000c8565b600a6200014f8b8262000825565b50600b6200015e8a8262000825565b50600c805460ff1916600917905560078890556200017f8860001962000907565b6200018d906000196200091e565b60085561ffff858116600d819055600e55848116600f819055601055601580546001600160a01b0319166001600160a01b03891617905583166011819055601255620001dc886103e862000560565b6016556015805460ff60a81b1916600160a81b179055600854600160006200020c6000546001600160a01b031690565b6001600160a01b03166001600160a01b03168152602001908152602001600020819055506000879050806001600160a01b031663c45a01556040518163ffffffff1660e01b8152600401602060405180830381865afa15801562000274573d6000803e3d6000fd5b505050506040513d601f19601f820116820180604052508101906200029a919062000934565b6001600160a01b031663c9c6539630836001600160a01b031663ad5c46486040518163ffffffff1660e01b8152600401602060405180830381865afa158015620002e8573d6000803e3d6000fd5b505050506040513d601f19601f820116820180604052508101906200030e919062000934565b6040516001600160e01b031960e085901b1681526001600160a01b039283166004820152911660248201526044016020604051808303816000875af11580156200035c573d6000803e3d6000fd5b505050506040513d601f19601f8201168201806040525081019062000382919062000934565b601480546001600160a01b03199081166001600160a01b039384161790915560138054909116918316919091179055600160046000620003ca6000546001600160a01b031690565b6001600160a01b0316815260208082019290925260409081016000908120805494151560ff1995861617905530815260049092529020805490911660011790556200041d6000546001600160a01b031690565b6001600160a01b031660006001600160a01b03167fddf252ad1be2c89b69c2b068fc378daa952ba7f163c4a11628f55a4df523b3ef6007546040516200046591815260200190565b60405180910390a330620004816000546001600160a01b031690565b6001600160a01b03167f56358b41df5fa59f5639228f0930994cbdde383c8a8fd74e06c04e1deebe356260026001604051620004bf92919062000952565b60405180910390a36040516001600160a01b0384169083156108fc029084906000818181858888f19350505050158015620004fe573d6000803e3d6000fd5b50505050505050505050505062000996565b600080546001600160a01b038381166001600160a01b0319831681178455604051919092169283917f8be0079c531659141344cd1fd0a4f28419497f9722a3daafe3b4186f6b6457e09190a35050565b60006200056e82846200097f565b90505b92915050565b634e487b7160e01b600052604160045260246000fd5b600082601f8301126200059f57600080fd5b81516001600160401b0380821115620005bc57620005bc62000577565b604051601f8301601f19908116603f01168101908282118183101715620005e757620005e762000577565b816040528381526020925086838588010111156200060457600080fd5b600091505b8382101562000628578582018301518183018401529082019062000609565b600093810190920192909252949350505050565b80516001600160a01b03811681146200065457600080fd5b919050565b805161ffff811681146200065457600080fd5b6000806000806000806000806000806101408b8d0312156200068d57600080fd5b8a516001600160401b0380821115620006a557600080fd5b620006b38e838f016200058d565b9b5060208d0151915080821115620006ca57600080fd5b50620006d98d828e016200058d565b99505060408b01519750620006f160608c016200063c565b96506200070160808c016200063c565b95506200071160a08c0162000659565b94506200072160c08c0162000659565b93506200073160e08c0162000659565b9250620007426101008c016200063c565b91506101208b015190509295989b9194979a5092959850565b634e487b7160e01b600052601160045260246000fd5b61ffff8181168382160190808211156200078f576200078f6200075b565b5092915050565b600181811c90821680620007ab57607f821691505b602082108103620007cc57634e487b7160e01b600052602260045260246000fd5b50919050565b601f8211156200082057600081815260208120601f850160051c81016020861015620007fb5750805b601f850160051c820191505b818110156200081c5782815560010162000807565b5050505b505050565b81516001600160401b0381111562000841576200084162000577565b620008598162000852845462000796565b84620007d2565b602080601f831160018114620008915760008415620008785750858301515b600019600386901b1c1916600185901b1785556200081c565b600085815260208120601f198616915b82811015620008c257888601518255948401946001909101908401620008a1565b5085821015620008e15787850151600019600388901b60f8161c191681555b5050505050600190811b01905550565b634e487b7160e01b600052601260045260246000fd5b600082620009195762000919620008f1565b500690565b818103818111156200057157620005716200075b565b6000602082840312156200094757600080fd5b6200056e826200063c565b60408101600884106200097557634e487b7160e01b600052602160045260246000fd5b9281526020015290565b600082620009915762000991620008f1565b500490565b6123c780620009a66000396000f3fe6080604052600436106102135760003560e01c80634a74bb02116101185780638ee88c53116100a0578063af41063b1161006f578063af41063b14610627578063bc063e1a14610647578063dd62ed3e1461065d578063f2fde38b146106a3578063ffa1ad74146106c357600080fd5b80638ee88c53146105b257806395d89b41146105d2578063a457c2d7146105e7578063a9059cbb1461060757600080fd5b806370a08231116100e757806370a0823114610506578063715018a614610526578063796431d01461053b57806388f820201461055b5780638da5cb5b1461059457600080fd5b80634a74bb021461047657806352390c02146104975780635342acb4146104b75780636bc87c3a146104f057600080fd5b8063313ce5671161019b5780633bd5d1731161016a5780633bd5d173146103e057806340f8007a14610400578063437823ec146104165780634549b0391461043657806349bd5a5e1461045657600080fd5b8063313ce567146103685780633685d4191461038a57806339509351146103aa5780633b124fe7146103ca57600080fd5b80631694505e116101e25780631694505e146102bb57806318160ddd146102f357806319a8ac9e1461030857806323b872dd146103285780632d8381191461034857600080fd5b8063061c82d01461021f57806306fdde0314610241578063095ea7b31461026c57806313114a9d1461029c57600080fd5b3661021a57005b600080fd5b34801561022b57600080fd5b5061023f61023a36600461202b565b6106d8565b005b34801561024d57600080fd5b50610256610752565b6040516102639190612044565b60405180910390f35b34801561027857600080fd5b5061028c6102873660046120a7565b6107e4565b6040519015158152602001610263565b3480156102a857600080fd5b506009545b604051908152602001610263565b3480156102c757600080fd5b506013546102db906001600160a01b031681565b6040516001600160a01b039091168152602001610263565b3480156102ff57600080fd5b506007546102ad565b34801561031457600080fd5b506015546102db906001600160a01b031681565b34801561033457600080fd5b5061028c6103433660046120d3565b6107fb565b34801561035457600080fd5b506102ad61036336600461202b565b610864565b34801561037457600080fd5b50600c5460405160ff9091168152602001610263565b34801561039657600080fd5b5061023f6103a5366004612114565b6108e8565b3480156103b657600080fd5b5061028c6103c53660046120a7565b610a7c565b3480156103d657600080fd5b506102ad600d5481565b3480156103ec57600080fd5b5061023f6103fb36600461202b565b610ab2565b34801561040c57600080fd5b506102ad60115481565b34801561042257600080fd5b5061023f610431366004612114565b610b9e565b34801561044257600080fd5b506102ad610451366004612131565b610bca565b34801561046257600080fd5b506014546102db906001600160a01b031681565b34801561048257600080fd5b5060155461028c90600160a81b900460ff1681565b3480156104a357600080fd5b5061023f6104b2366004612114565b610c59565b3480156104c357600080fd5b5061028c6104d2366004612114565b6001600160a01b031660009081526004602052604090205460ff1690565b3480156104fc57600080fd5b506102ad600f5481565b34801561051257600080fd5b506102ad610521366004612114565b610d8a565b34801561053257600080fd5b5061023f610de9565b34801561054757600080fd5b5061023f61055636600461202b565b610dfd565b34801561056757600080fd5b5061028c610576366004612114565b6001600160a01b031660009081526005602052604090205460ff1690565b3480156105a057600080fd5b506000546001600160a01b03166102db565b3480156105be57600080fd5b5061023f6105cd36600461202b565b610ed5565b3480156105de57600080fd5b50610256610ef8565b3480156105f357600080fd5b5061028c6106023660046120a7565b610f07565b34801561061357600080fd5b5061028c6106223660046120a7565b610f56565b34801561063357600080fd5b5061023f61064236600461202b565b610f63565b34801561065357600080fd5b506102ad6109c481565b34801561066957600080fd5b506102ad610678366004612166565b6001600160a01b03918216600090815260036020908152604080832093909416825291909152205490565b3480156106af57600080fd5b5061023f6106be366004612114565b610f86565b3480156106cf57600080fd5b506102ad600181565b6106e0610ffc565b600d819055601154600f546109c491906106fa90846121aa565b61070491906121aa565b111561074f5760405162461bcd60e51b8152602060048201526015602482015274546f74616c20666565206973206f7665722032352560581b60448201526064015b60405180910390fd5b50565b6060600a8054610761906121bd565b80601f016020809104026020016040519081016040528092919081815260200182805461078d906121bd565b80156107da5780601f106107af576101008083540402835291602001916107da565b820191906000526020600020905b8154815290600101906020018083116107bd57829003601f168201915b5050505050905090565b60006107f1338484611056565b5060015b92915050565b600061080884848461117b565b61085a843361085585604051806060016040528060288152602001612345602891396001600160a01b038a1660009081526003602090815260408083203384529091529020549190611370565b611056565b5060019392505050565b60006008548211156108cb5760405162461bcd60e51b815260206004820152602a60248201527f416d6f756e74206d757374206265206c657373207468616e20746f74616c207260448201526965666c656374696f6e7360b01b6064820152608401610746565b60006108d561139c565b90506108e183826113bf565b9392505050565b6108f0610ffc565b6001600160a01b03811660009081526005602052604090205460ff166109585760405162461bcd60e51b815260206004820152601b60248201527f4163636f756e7420697320616c7265616479206578636c7564656400000000006044820152606401610746565b60005b600654811015610a7857816001600160a01b031660068281548110610982576109826121f7565b6000918252602090912001546001600160a01b031603610a6657600680546109ac9060019061220d565b815481106109bc576109bc6121f7565b600091825260209091200154600680546001600160a01b0390921691839081106109e8576109e86121f7565b600091825260208083209190910180546001600160a01b0319166001600160a01b039485161790559184168152600282526040808220829055600590925220805460ff191690556006805480610a4057610a40612220565b600082815260209020810160001990810180546001600160a01b03191690550190555050565b80610a7081612236565b91505061095b565b5050565b3360008181526003602090815260408083206001600160a01b038716845290915281205490916107f191859061085590866113cb565b3360008181526005602052604090205460ff1615610b275760405162461bcd60e51b815260206004820152602c60248201527f4578636c75646564206164647265737365732063616e6e6f742063616c6c207460448201526b3434b990333ab731ba34b7b760a11b6064820152608401610746565b6000610b32836113d7565b5050506001600160a01b038616600090815260016020526040902054939450610b6093925084915050611432565b6001600160a01b038316600090815260016020526040902055600854610b869082611432565b600855600954610b9690846113cb565b600955505050565b610ba6610ffc565b6001600160a01b03166000908152600460205260409020805460ff19166001179055565b6000600754831115610c1e5760405162461bcd60e51b815260206004820152601f60248201527f416d6f756e74206d757374206265206c657373207468616e20737570706c79006044820152606401610746565b81610c3e576000610c2e846113d7565b509496506107f595505050505050565b6000610c49846113d7565b509396506107f595505050505050565b610c61610ffc565b6001600160a01b03811660009081526005602052604090205460ff1615610cca5760405162461bcd60e51b815260206004820152601b60248201527f4163636f756e7420697320616c7265616479206578636c7564656400000000006044820152606401610746565b6001600160a01b03811660009081526001602052604090205415610d24576001600160a01b038116600090815260016020526040902054610d0a90610864565b6001600160a01b0382166000908152600260205260409020555b6001600160a01b03166000818152600560205260408120805460ff191660019081179091556006805491820181559091527ff652222313e28459528d920b65115c16c04f3efc82aaedc97be59f3f377c0d3f0180546001600160a01b0319169091179055565b6001600160a01b03811660009081526005602052604081205460ff1615610dc757506001600160a01b031660009081526002602052604090205490565b6001600160a01b0382166000908152600160205260409020546107f590610864565b610df1610ffc565b610dfb600061143e565b565b610e05610ffc565b610e25612710610e1f6005610e1960075490565b9061148e565b906113bf565b811015610e9a5760405162461bcd60e51b815260206004820152603860248201527f537761706261636b20616d6f756e742073686f756c64206265206174206c656160448201527f737420302e303525206f6620746f74616c20737570706c7900000000000000006064820152608401610746565b60168190556040518181527ff7edd1a72d399eb95c56c07c5a26f00a9096735269c96c75caa8fc4e15bcd5d29060200160405180910390a150565b610edd610ffc565b600f819055601154600d546109c491906106fa9084906121aa565b6060600b8054610761906121bd565b60006107f133846108558560405180606001604052806025815260200161236d602591393360009081526003602090815260408083206001600160a01b038d1684529091529020549190611370565b60006107f133848461117b565b610f6b610ffc565b6011819055600f54600d546109c49183916106fa91906121aa565b610f8e610ffc565b6001600160a01b038116610ff35760405162461bcd60e51b815260206004820152602660248201527f4f776e61626c653a206e6577206f776e657220697320746865207a65726f206160448201526564647265737360d01b6064820152608401610746565b61074f8161143e565b6000546001600160a01b03163314610dfb5760405162461bcd60e51b815260206004820181905260248201527f4f776e61626c653a2063616c6c6572206973206e6f7420746865206f776e65726044820152606401610746565b6001600160a01b0383166110b85760405162461bcd60e51b8152602060048201526024808201527f45524332303a20617070726f76652066726f6d20746865207a65726f206164646044820152637265737360e01b6064820152608401610746565b6001600160a01b0382166111195760405162461bcd60e51b815260206004820152602260248201527f45524332303a20617070726f766520746f20746865207a65726f206164647265604482015261737360f01b6064820152608401610746565b6001600160a01b0383811660008181526003602090815260408083209487168084529482529182902085905590518481527f8c5be1e5ebec7d5bd14f71427d1e84f3dd0314c0f7b2291e5b200ac8c7c3b92591015b60405180910390a3505050565b6001600160a01b0383166111df5760405162461bcd60e51b815260206004820152602560248201527f45524332303a207472616e736665722066726f6d20746865207a65726f206164604482015264647265737360d81b6064820152608401610746565b6001600160a01b0382166112415760405162461bcd60e51b815260206004820152602360248201527f45524332303a207472616e7366657220746f20746865207a65726f206164647260448201526265737360e81b6064820152608401610746565b600081116112a35760405162461bcd60e51b815260206004820152602960248201527f5472616e7366657220616d6f756e74206d7573742062652067726561746572206044820152687468616e207a65726f60b81b6064820152608401610746565b60006112ae30610d8a565b601654909150811080159081906112cf5750601554600160a01b900460ff16155b80156112e957506014546001600160a01b03868116911614155b80156112fe5750601554600160a81b900460ff165b156113115760165491506113118261149a565b6001600160a01b03851660009081526004602052604090205460019060ff168061135357506001600160a01b03851660009081526004602052604090205460ff165b1561135c575060005b61136886868684611541565b505050505050565b600081848411156113945760405162461bcd60e51b81526004016107469190612044565b505050900390565b60008060006113a96116e1565b90925090506113b882826113bf565b9250505090565b60006108e1828461224f565b60006108e182846121aa565b60008060008060008060008060008060006113f18c611863565b935093509350935060008060006114128f87878761140d61139c565b6118b8565b919f509d509b509599509397509195509350505050919395979092949650565b60006108e1828461220d565b600080546001600160a01b038381166001600160a01b0319831681178455604051919092169283917f8be0079c531659141344cd1fd0a4f28419497f9722a3daafe3b4186f6b6457e09190a35050565b60006108e18284612271565b6015805460ff60a01b1916600160a01b17905560006114ba8260026113bf565b905060006114c88383611432565b9050476114d48361191a565b60006114e04783611432565b90506114ec8382611a6c565b60408051858152602081018390529081018490527f17bbfb9a6069321b6ded73bd96327c9e6b7212a5cd51ff219cd61370acafb5619060600160405180910390a150506015805460ff60a01b19169055505050565b8061156b5761156b600d8054600e55600f8054601055601180546012556000928390559082905555565b6001600160a01b03841660009081526005602052604090205460ff1680156115ac57506001600160a01b03831660009081526005602052604090205460ff16155b156115c1576115bc848484611b1e565b6116bf565b6001600160a01b03841660009081526005602052604090205460ff1615801561160257506001600160a01b03831660009081526005602052604090205460ff165b15611612576115bc848484611c64565b6001600160a01b03841660009081526005602052604090205460ff1615801561165457506001600160a01b03831660009081526005602052604090205460ff16155b15611664576115bc848484611d23565b6001600160a01b03841660009081526005602052604090205460ff1680156116a457506001600160a01b03831660009081526005602052604090205460ff165b156116b4576115bc848484611d7d565b6116bf848484611d23565b806116db576116db600e54600d55601054600f55601254601155565b50505050565b6008546007546000918291825b60065481101561183357826001600060068481548110611710576117106121f7565b60009182526020808320909101546001600160a01b03168352820192909252604001902054118061177b5750816002600060068481548110611754576117546121f7565b60009182526020808320909101546001600160a01b03168352820192909252604001902054115b1561179157600854600754945094505050509091565b6117d760016000600684815481106117ab576117ab6121f7565b60009182526020808320909101546001600160a01b031683528201929092526040019020548490611432565b925061181f60026000600684815481106117f3576117f36121f7565b60009182526020808320909101546001600160a01b031683528201929092526040019020548390611432565b91508061182b81612236565b9150506116ee565b50600754600854611843916113bf565b82101561185a576008546007549350935050509091565b90939092509050565b600080600080600061187486611e06565b9050600061188187611e23565b9050600061188e88611e40565b905060006118a8826118a285818d89611432565b90611432565b9993985091965094509092505050565b60008080806118c7898661148e565b905060006118d5898761148e565b905060006118e3898861148e565b905060006118f1898961148e565b90506000611905826118a285818989611432565b949d949c50929a509298505050505050505050565b604080516002808252606082018352600092602083019080368337019050509050308160008151811061194f5761194f6121f7565b6001600160a01b03928316602091820292909201810191909152601354604080516315ab88c960e31b81529051919093169263ad5c46489260048083019391928290030181865afa1580156119a8573d6000803e3d6000fd5b505050506040513d601f19601f820116820180604052508101906119cc9190612288565b816001815181106119df576119df6121f7565b6001600160a01b039283166020918202929092010152601354611a059130911684611056565b60135460405163791ac94760e01b81526001600160a01b039091169063791ac94790611a3e9085906000908690309042906004016122a5565b600060405180830381600087803b158015611a5857600080fd5b505af1158015611368573d6000803e3d6000fd5b601354611a849030906001600160a01b031684611056565b60135460405163f305d71960e01b815230600482015260248101849052600060448201819052606482015261dead60848201524260a48201526001600160a01b039091169063f305d71990839060c40160606040518083038185885af1158015611af2573d6000803e3d6000fd5b50505050506040513d601f19601f82011682018060405250810190611b179190612316565b5050505050565b6000806000806000806000611b32886113d7565b9650965096509650965096509650611b7888600260008d6001600160a01b03166001600160a01b031681526020019081526020016000205461143290919063ffffffff16565b6001600160a01b038b16600090815260026020908152604080832093909355600190522054611ba79088611432565b6001600160a01b03808c1660009081526001602052604080822093909355908b1681522054611bd690876113cb565b6001600160a01b038a16600090815260016020526040902055611bf882611e76565b611c0181611eff565b611c0b8584612007565b886001600160a01b03168a6001600160a01b03167fddf252ad1be2c89b69c2b068fc378daa952ba7f163c4a11628f55a4df523b3ef86604051611c5091815260200190565b60405180910390a350505050505050505050565b6000806000806000806000611c78886113d7565b9650965096509650965096509650611cbe87600160008d6001600160a01b03166001600160a01b031681526020019081526020016000205461143290919063ffffffff16565b6001600160a01b03808c16600090815260016020908152604080832094909455918c16815260029091522054611cf490856113cb565b6001600160a01b038a16600090815260026020908152604080832093909355600190522054611bd690876113cb565b6000806000806000806000611d37886113d7565b9650965096509650965096509650611ba787600160008d6001600160a01b03166001600160a01b031681526020019081526020016000205461143290919063ffffffff16565b6000806000806000806000611d91886113d7565b9650965096509650965096509650611dd788600260008d6001600160a01b03166001600160a01b031681526020019081526020016000205461143290919063ffffffff16565b6001600160a01b038b16600090815260026020908152604080832093909355600190522054611cbe9088611432565b60006107f5612710610e1f600d548561148e90919063ffffffff16565b60006107f5612710610e1f600f548561148e90919063ffffffff16565b6015546000906001600160a01b0316611e5b57506000919050565b6107f5612710610e1f6011548561148e90919063ffffffff16565b6000611e8061139c565b90506000611e8e838361148e565b30600090815260016020526040902054909150611eab90826113cb565b3060009081526001602090815260408083209390935560059052205460ff1615611efa5730600090815260026020526040902054611ee990846113cb565b306000908152600260205260409020555b505050565b801561074f576000611f0f61139c565b90506000611f1d838361148e565b6015546001600160a01b0316600090815260016020526040902054909150611f4590826113cb565b601580546001600160a01b03908116600090815260016020908152604080832095909555925490911681526005909152205460ff1615611fc0576015546001600160a01b0316600090815260026020526040902054611fa490846113cb565b6015546001600160a01b03166000908152600260205260409020555b6015546001600160a01b0316336001600160a01b03167fddf252ad1be2c89b69c2b068fc378daa952ba7f163c4a11628f55a4df523b3ef8560405161116e91815260200190565b6008546120149083611432565b60085560095461202490826113cb565b6009555050565b60006020828403121561203d57600080fd5b5035919050565b600060208083528351808285015260005b8181101561207157858101830151858201604001528201612055565b506000604082860101526040601f19601f8301168501019250505092915050565b6001600160a01b038116811461074f57600080fd5b600080604083850312156120ba57600080fd5b82356120c581612092565b946020939093013593505050565b6000806000606084860312156120e857600080fd5b83356120f381612092565b9250602084013561210381612092565b929592945050506040919091013590565b60006020828403121561212657600080fd5b81356108e181612092565b6000806040838503121561214457600080fd5b823591506020830135801515811461215b57600080fd5b809150509250929050565b6000806040838503121561217957600080fd5b823561218481612092565b9150602083013561215b81612092565b634e487b7160e01b600052601160045260246000fd5b808201808211156107f5576107f5612194565b600181811c908216806121d157607f821691505b6020821081036121f157634e487b7160e01b600052602260045260246000fd5b50919050565b634e487b7160e01b600052603260045260246000fd5b818103818111156107f5576107f5612194565b634e487b7160e01b600052603160045260246000fd5b60006001820161224857612248612194565b5060010190565b60008261226c57634e487b7160e01b600052601260045260246000fd5b500490565b80820281158282048414176107f5576107f5612194565b60006020828403121561229a57600080fd5b81516108e181612092565b600060a082018783526020878185015260a0604085015281875180845260c086019150828901935060005b818110156122f55784516001600160a01b0316835293830193918301916001016122d0565b50506001600160a01b03969096166060850152505050608001529392505050565b60008060006060848603121561232b57600080fd5b835192506020840151915060408401519050925092509256fe45524332303a207472616e7366657220616d6f756e74206578636565647320616c6c6f77616e636545524332303a2064656372656173656420616c6c6f77616e63652062656c6f77207a65726fa264697066735822122082a33712d07e458cdee8d4b612898610bc3c085e8f8a165273c6bf827fc578f664736f6c63430008130033",
  "linkReferences": {},
  "deployedLinkReferences": {}
}