{"contracts/launchpad/utils/DividendDistributor.sol":{"DividendDistributor":{"abi":[{"inputs":[{"internalType":"address","name":"rewardToken_","type":"address"},{"internalType":"address","name":"router_","type":"address"}],"stateMutability":"nonpayable","type":"constructor"},{"inputs":[],"name":"_token","outputs":[{"internalType":"address","name":"","type":"address"}],"stateMutability":"view","type":"function"},{"inputs":[],"name":"claimDividend","outputs":[],"stateMutability":"nonpayable","type":"function"},{"inputs":[],"name":"deposit","outputs":[],"stateMutability":"payable","type":"function"},{"inputs":[],"name":"dividendsPerShare","outputs":[{"internalType":"uint256","name":"","type":"uint256"}],"stateMutability":"view","type":"function"},{"inputs":[],"name":"dividendsPerShareAccuracyFactor","outputs":[{"internalType":"uint256","name":"","type":"uint256"}],"stateMutability":"view","type":"function"},{"inputs":[{"internalType":"address","name":"shareholder","type":"address"}],"name":"getUnpaidEarnings","outputs":[{"internalType":"uint256","name":"","type":"uint256"}],"stateMutability":"view","type":"function"},{"inputs":[],"name":"minDistribution","outputs":[{"internalType":"uint256","name":"","type":"uint256"}],"stateMutability":"view","type":"function"},{"inputs":[],"name":"minPeriod","outputs":[{"internalType":"uint256","name":"","type":"uint256"}],"stateMutability":"view","type":"function"},{"inputs":[{"internalType":"uint256","name":"gas","type":"uint256"}],"name":"process","outputs":[],"stateMutability":"nonpayable","type":"function"},{"inputs":[],"name":"rewardToken","outputs":[{"internalType":"contract IERC20Metadata","name":"","type":"address"}],"stateMutability":"view","type":"function"},{"inputs":[],"name":"router","outputs":[{"internalType":"contract IUniswapV2Router02","name":"","type":"address"}],"stateMutability":"view","type":"function"},{"inputs":[{"internalType":"uint256","name":"_minPeriod","type":"uint256"},{"internalType":"uint256","name":"_minDistribution","type":"uint256"}],"name":"setDistributionCriteria","outputs":[],"stateMutability":"nonpayable","type":"function"},{"inputs":[{"internalType":"address","name":"shareholder","type":"address"},{"internalType":"uint256","name":"amount","type":"uint256"}],"name":"setShare","outputs":[],"stateMutability":"nonpayable","type":"function"},{"inputs":[{"internalType":"address","name":"","type":"address"}],"name":"shareholderClaims","outputs":[{"internalType":"uint256","name":"","type":"uint256"}],"stateMutability":"view","type":"function"},{"inputs":[{"internalType":"address","name":"","type":"address"}],"name":"shareholderIndexes","outputs":[{"internalType":"uint256","name":"","type":"uint256"}],"stateMutability":"view","type":"function"},{"inputs":[{"internalType":"uint256","name":"","type":"uint256"}],"name":"shareholders","outputs":[{"internalType":"address","name":"","type":"address"}],"stateMutability":"view","type":"function"},{"inputs":[{"internalType":"address","name":"","type":"address"}],"name":"shares","outputs":[{"internalType":"uint256","name":"amount","type":"uint256"},{"internalType":"uint256","name":"totalExcluded","type":"uint256"},{"internalType":"uint256","name":"totalRealised","type":"uint256"}],"stateMutability":"view","type":"function"},{"inputs":[],"name":"totalDistributed","outputs":[{"internalType":"uint256","name":"","type":"uint256"}],"stateMutability":"view","type":"function"},{"inputs":[],"name":"totalDividends","outputs":[{"internalType":"uint256","name":"","type":"uint256"}],"stateMutability":"view","type":"function"},{"inputs":[],"name":"totalShares","outputs":[{"internalType":"uint256","name":"","type":"uint256"}],"stateMutability":"view","type":"function"}],"evm":{"bytecode":{"linkReferences":{},"object":"60806040523480156200001157600080fd5b50604051620014103803806200141083398101604081905262000034916200012f565b60008054336001600160a01b0319918216179091556001805482166001600160a01b0385811691821790925560028054909316918416919091179091556ec097ce7bc90715b34b9f1000000000600b55610e10600c556040805163313ce56760e01b8152905163313ce567916004808201926020929091908290030181865afa158015620000c6573d6000803e3d6000fd5b505050506040513d601f19601f82011682018060405250810190620000ec919062000167565b620000f990600a620002a8565b62000106906001620002b9565b600d5550620002d39050565b80516001600160a01b03811681146200012a57600080fd5b919050565b600080604083850312156200014357600080fd5b6200014e8362000112565b91506200015e6020840162000112565b90509250929050565b6000602082840312156200017a57600080fd5b815160ff811681146200018c57600080fd5b9392505050565b634e487b7160e01b600052601160045260246000fd5b600181815b80851115620001ea578160001904821115620001ce57620001ce62000193565b80851615620001dc57918102915b93841c9390800290620001ae565b509250929050565b6000826200020357506001620002a2565b816200021257506000620002a2565b81600181146200022b5760028114620002365762000256565b6001915050620002a2565b60ff8411156200024a576200024a62000193565b50506001821b620002a2565b5060208310610133831016604e8410600b84101617156200027b575081810a620002a2565b620002878383620001a9565b80600019048211156200029e576200029e62000193565b0290505b92915050565b60006200018c60ff841683620001f2565b8082028115828204841417620002a257620002a262000193565b61112d80620002e36000396000f3fe60806040526004361061011f5760003560e01c8063d0e30db0116100a0578063f0fc6bca11610064578063f0fc6bca1461032e578063f7c618c114610343578063f887ea4014610363578063ffb2c47914610383578063ffd49c84146103a357600080fd5b8063d0e30db0146102ad578063d4fda1f2146102b5578063e2d2e219146102e2578063ecd0c0c3146102f8578063efca2eed1461031857600080fd5b80634fab0ae8116100e75780634fab0ae8146101c557806366817df5146101db578063997664d714610208578063ab377daa1461021e578063ce7c2ac21461025657600080fd5b806311ce023d1461012457806314b6ca961461014d57806328fd31981461016f5780632d48e8961461018f5780633a98ef39146101af575b600080fd5b34801561013057600080fd5b5061013a600b5481565b6040519081526020015b60405180910390f35b34801561015957600080fd5b5061016d610168366004610e7d565b6103b9565b005b34801561017b57600080fd5b5061013a61018a366004610ea9565b610531565b34801561019b57600080fd5b5061016d6101aa366004610ecd565b6105bc565b3480156101bb57600080fd5b5061013a60075481565b3480156101d157600080fd5b5061013a600d5481565b3480156101e757600080fd5b5061013a6101f6366004610ea9565b60056020526000908152604090205481565b34801561021457600080fd5b5061013a60085481565b34801561022a57600080fd5b5061023e610239366004610eef565b6105de565b6040516001600160a01b039091168152602001610144565b34801561026257600080fd5b50610292610271366004610ea9565b60066020526000908152604090208054600182015460029092015490919083565b60408051938452602084019290925290820152606001610144565b61016d610608565b3480156102c157600080fd5b5061013a6102d0366004610ea9565b60046020526000908152604090205481565b3480156102ee57600080fd5b5061013a600a5481565b34801561030457600080fd5b5060005461023e906001600160a01b031681565b34801561032457600080fd5b5061013a60095481565b34801561033a57600080fd5b5061016d610897565b34801561034f57600080fd5b5060015461023e906001600160a01b031681565b34801561036f57600080fd5b5060025461023e906001600160a01b031681565b34801561038f57600080fd5b5061016d61039e366004610eef565b6108a2565b3480156103af57600080fd5b5061013a600c5481565b6000546001600160a01b031633146103d057600080fd5b6001600160a01b038216600090815260066020526040902054156103f7576103f7826109a7565b60008111801561041d57506001600160a01b038216600090815260066020526040902054155b1561048357600380546001600160a01b0384166000818152600460205260408120839055600183018455929092527fc2575a0e9e593c00f959f8c92f12db2869c3395a3b0502d05e2516446f71f85b0180546001600160a01b03191690911790556104b6565b801580156104a857506001600160a01b03821660009081526006602052604090205415155b156104b6576104b682610a64565b6001600160a01b0382166000908152600660205260409020546007546104e79183916104e191610b79565b90610b8e565b6007556001600160a01b038216600090815260066020526040902081905561050e81610b9a565b6001600160a01b0390921660009081526006602052604090206001019190915550565b6001600160a01b038116600090815260066020526040812054810361055857506000919050565b6001600160a01b03821660009081526006602052604081205461057a90610b9a565b6001600160a01b0384166000908152600660205260409020600101549091508082116105aa575060009392505050565b6105b48282610b79565b949350505050565b6000546001600160a01b031633146105d357600080fd5b600c91909155600d55565b600381815481106105ee57600080fd5b6000918252602090912001546001600160a01b0316905081565b6000546001600160a01b0316331461061f57600080fd5b6001546040516370a0823160e01b81523060048201526000916001600160a01b0316906370a0823190602401602060405180830381865afa158015610668573d6000803e3d6000fd5b505050506040513d601f19601f8201168201806040525081019061068c9190610f08565b60408051600280825260608201835292935060009290916020830190803683375050600254604080516315ab88c960e31b815290519394506001600160a01b039091169263ad5c4648925060048083019260209291908290030181865afa1580156106fb573d6000803e3d6000fd5b505050506040513d601f19601f8201168201806040525081019061071f9190610f21565b8160008151811061073257610732610f3e565b6001600160a01b039283166020918202929092010152600180548351921691839190811061076257610762610f3e565b6001600160a01b03928316602091820292909201015260025460405163b6f9de9560e01b815291169063b6f9de959034906107a890600090869030904290600401610f54565b6000604051808303818588803b1580156107c157600080fd5b505af11580156107d5573d6000803e3d6000fd5b50506001546040516370a0823160e01b81523060048201526000945061085593508692506001600160a01b03909116906370a0823190602401602060405180830381865afa15801561082b573d6000803e3d6000fd5b505050506040513d601f19601f8201168201806040525081019061084f9190610f08565b90610b79565b6008549091506108659082610b8e565b600855600754600b5461088f91610886916108809085610bb7565b90610bc3565b600a5490610b8e565b600a55505050565b6108a0336109a7565b565b6000546001600160a01b031633146108b957600080fd5b60035460008190036108c9575050565b6000805a905060005b84831080156108e057508381105b1561099f5783600e54106108f4576000600e555b6109266003600e548154811061090c5761090c610f3e565b6000918252602090912001546001600160a01b0316610bcf565b1561095d5761095d6003600e548154811061094357610943610f3e565b6000918252602090912001546001600160a01b03166109a7565b61097261096b5a8490610b79565b8490610b8e565b92505a600e8054919350600061098783610fd4565b9190505550808061099790610fd4565b9150506108d2565b505050505b50565b6001600160a01b03811660009081526006602052604081205490036109c95750565b60006109d482610531565b90508015610a60576009546109e99082610b8e565b600955600154610a03906001600160a01b03168383610c14565b6001600160a01b03821660009081526005602090815260408083204290556006909152902060020154610a369082610b8e565b6001600160a01b038316600090815260066020526040902060028101919091555461050e90610b9a565b5050565b60038054610a7490600190610fed565b81548110610a8457610a84610f3e565b60009182526020808320909101546001600160a01b0384811684526004909252604090922054600380549290931692918110610ac257610ac2610f3e565b600091825260208083209190910180546001600160a01b0319166001600160a01b03948516179055918316815260049182905260408120546003805491939291610b0e90600190610fed565b81548110610b1e57610b1e610f3e565b60009182526020808320909101546001600160a01b031683528201929092526040019020556003805480610b5457610b54611000565b600082815260209020810160001990810180546001600160a01b031916905501905550565b6000610b858284610fed565b90505b92915050565b6000610b858284611016565b6000610b88600b54610880600a5485610bb790919063ffffffff16565b6000610b858284611029565b6000610b858284611040565b600c546001600160a01b03821660009081526005602052604081205490914291610bf99190611016565b108015610b885750600d54610c0d83610531565b1192915050565b604080516001600160a01b038416602482015260448082018490528251808303909101815260649091019091526020810180516001600160e01b031663a9059cbb60e01b179052610c66908490610c6b565b505050565b6000610cc0826040518060400160405280602081526020017f5361666545524332303a206c6f772d6c6576656c2063616c6c206661696c6564815250856001600160a01b0316610d459092919063ffffffff16565b9050805160001480610ce1575080806020019051810190610ce19190611062565b610c665760405162461bcd60e51b815260206004820152602a60248201527f5361666545524332303a204552433230206f7065726174696f6e20646964206e6044820152691bdd081cdd58d8d9595960b21b60648201526084015b60405180910390fd5b60606105b4848460008585600080866001600160a01b03168587604051610d6c91906110a8565b60006040518083038185875af1925050503d8060008114610da9576040519150601f19603f3d011682016040523d82523d6000602084013e610dae565b606091505b5091509150610dbf87838387610dca565b979650505050505050565b60608315610e39578251600003610e32576001600160a01b0385163b610e325760405162461bcd60e51b815260206004820152601d60248201527f416464726573733a2063616c6c20746f206e6f6e2d636f6e74726163740000006044820152606401610d3c565b50816105b4565b6105b48383815115610e4e5781518083602001fd5b8060405162461bcd60e51b8152600401610d3c91906110c4565b6001600160a01b03811681146109a457600080fd5b60008060408385031215610e9057600080fd5b8235610e9b81610e68565b946020939093013593505050565b600060208284031215610ebb57600080fd5b8135610ec681610e68565b9392505050565b60008060408385031215610ee057600080fd5b50508035926020909101359150565b600060208284031215610f0157600080fd5b5035919050565b600060208284031215610f1a57600080fd5b5051919050565b600060208284031215610f3357600080fd5b8151610ec681610e68565b634e487b7160e01b600052603260045260246000fd5b600060808201868352602060808185015281875180845260a086019150828901935060005b81811015610f9e5784516001600160a01b031683529383019391830191600101610f79565b50506001600160a01b039690961660408501525050506060015292915050565b634e487b7160e01b600052601160045260246000fd5b600060018201610fe657610fe6610fbe565b5060010190565b81810381811115610b8857610b88610fbe565b634e487b7160e01b600052603160045260246000fd5b80820180821115610b8857610b88610fbe565b8082028115828204841417610b8857610b88610fbe565b60008261105d57634e487b7160e01b600052601260045260246000fd5b500490565b60006020828403121561107457600080fd5b81518015158114610ec657600080fd5b60005b8381101561109f578181015183820152602001611087565b50506000910152565b600082516110ba818460208701611084565b9190910192915050565b60208152600082518060208401526110e3816040850160208701611084565b601f01601f1916919091016040019291505056fea26469706673582212201f12228515cea1bb86891693806235e55888c47e54336a1e648532a3e196fb7964736f6c63430008130033","opcodes":"PUSH1 0x80 PUSH1 0x40 MSTORE CALLVALUE DUP1 ISZERO PUSH3 0x11 JUMPI PUSH1 0x0 DUP1 REVERT JUMPDEST POP PUSH1 0x40 MLOAD PUSH3 0x1410 CODESIZE SUB DUP1 PUSH3 0x1410 DUP4 CODECOPY DUP2 ADD PUSH1 0x40 DUP2 SWAP1 MSTORE PUSH3 0x34 SWAP2 PUSH3 0x12F JUMP JUMPDEST PUSH1 0x0 DUP1 SLOAD CALLER PUSH1 0x1 PUSH1 0x1 PUSH1 0xA0 SHL SUB NOT SWAP2 DUP3 AND OR SWAP1 SWAP2 SSTORE PUSH1 0x1 DUP1 SLOAD DUP3 AND PUSH1 0x1 PUSH1 0x1 PUSH1 0xA0 SHL SUB DUP6 DUP2 AND SWAP2 DUP3 OR SWAP1 SWAP3 SSTORE PUSH1 0x2 DUP1 SLOAD SWAP1 SWAP4 AND SWAP2 DUP5 AND SWAP2 SWAP1 SWAP2 OR SWAP1 SWAP2 SSTORE PUSH15 0xC097CE7BC90715B34B9F1000000000 PUSH1 0xB SSTORE PUSH2 0xE10 PUSH1 0xC SSTORE PUSH1 0x40 DUP1 MLOAD PUSH4 0x313CE567 PUSH1 0xE0 SHL DUP2 MSTORE SWAP1 MLOAD PUSH4 0x313CE567 SWAP2 PUSH1 0x4 DUP1 DUP3 ADD SWAP3 PUSH1 0x20 SWAP3 SWAP1 SWAP2 SWAP1 DUP3 SWAP1 SUB ADD DUP2 DUP7 GAS STATICCALL ISZERO DUP1 ISZERO PUSH3 0xC6 JUMPI RETURNDATASIZE PUSH1 0x0 DUP1 RETURNDATACOPY RETURNDATASIZE PUSH1 0x0 REVERT JUMPDEST POP POP POP POP PUSH1 0x40 MLOAD RETURNDATASIZE PUSH1 0x1F NOT PUSH1 0x1F DUP3 ADD AND DUP3 ADD DUP1 PUSH1 0x40 MSTORE POP DUP2 ADD SWAP1 PUSH3 0xEC SWAP2 SWAP1 PUSH3 0x167 JUMP JUMPDEST PUSH3 0xF9 SWAP1 PUSH1 0xA PUSH3 0x2A8 JUMP JUMPDEST PUSH3 0x106 SWAP1 PUSH1 0x1 PUSH3 0x2B9 JUMP JUMPDEST PUSH1 0xD SSTORE POP PUSH3 0x2D3 SWAP1 POP JUMP JUMPDEST DUP1 MLOAD PUSH1 0x1 PUSH1 0x1 PUSH1 0xA0 SHL SUB DUP2 AND DUP2 EQ PUSH3 0x12A JUMPI PUSH1 0x0 DUP1 REVERT JUMPDEST SWAP2 SWAP1 POP JUMP JUMPDEST PUSH1 0x0 DUP1 PUSH1 0x40 DUP4 DUP6 SUB SLT ISZERO PUSH3 0x143 JUMPI PUSH1 0x0 DUP1 REVERT JUMPDEST PUSH3 0x14E DUP4 PUSH3 0x112 JUMP JUMPDEST SWAP2 POP PUSH3 0x15E PUSH1 0x20 DUP5 ADD PUSH3 0x112 JUMP JUMPDEST SWAP1 POP SWAP3 POP SWAP3 SWAP1 POP JUMP JUMPDEST PUSH1 0x0 PUSH1 0x20 DUP3 DUP5 SUB SLT ISZERO PUSH3 0x17A JUMPI PUSH1 0x0 DUP1 REVERT JUMPDEST DUP2 MLOAD PUSH1 0xFF DUP2 AND DUP2 EQ PUSH3 0x18C JUMPI PUSH1 0x0 DUP1 REVERT JUMPDEST SWAP4 SWAP3 POP POP POP JUMP JUMPDEST PUSH4 0x4E487B71 PUSH1 0xE0 SHL PUSH1 0x0 MSTORE PUSH1 0x11 PUSH1 0x4 MSTORE PUSH1 0x24 PUSH1 0x0 REVERT JUMPDEST PUSH1 0x1 DUP2 DUP2 JUMPDEST DUP1 DUP6 GT ISZERO PUSH3 0x1EA JUMPI DUP2 PUSH1 0x0 NOT DIV DUP3 GT ISZERO PUSH3 0x1CE JUMPI PUSH3 0x1CE PUSH3 0x193 JUMP JUMPDEST DUP1 DUP6 AND ISZERO PUSH3 0x1DC JUMPI SWAP2 DUP2 MUL SWAP2 JUMPDEST SWAP4 DUP5 SHR SWAP4 SWAP1 DUP1 MUL SWAP1 PUSH3 0x1AE JUMP JUMPDEST POP SWAP3 POP SWAP3 SWAP1 POP JUMP JUMPDEST PUSH1 0x0 DUP3 PUSH3 0x203 JUMPI POP PUSH1 0x1 PUSH3 0x2A2 JUMP JUMPDEST DUP2 PUSH3 0x212 JUMPI POP PUSH1 0x0 PUSH3 0x2A2 JUMP JUMPDEST DUP2 PUSH1 0x1 DUP2 EQ PUSH3 0x22B JUMPI PUSH1 0x2 DUP2 EQ PUSH3 0x236 JUMPI PUSH3 0x256 JUMP JUMPDEST PUSH1 0x1 SWAP2 POP POP PUSH3 0x2A2 JUMP JUMPDEST PUSH1 0xFF DUP5 GT ISZERO PUSH3 0x24A JUMPI PUSH3 0x24A PUSH3 0x193 JUMP JUMPDEST POP POP PUSH1 0x1 DUP3 SHL PUSH3 0x2A2 JUMP JUMPDEST POP PUSH1 0x20 DUP4 LT PUSH2 0x133 DUP4 LT AND PUSH1 0x4E DUP5 LT PUSH1 0xB DUP5 LT AND OR ISZERO PUSH3 0x27B JUMPI POP DUP2 DUP2 EXP PUSH3 0x2A2 JUMP JUMPDEST PUSH3 0x287 DUP4 DUP4 PUSH3 0x1A9 JUMP JUMPDEST DUP1 PUSH1 0x0 NOT DIV DUP3 GT ISZERO PUSH3 0x29E JUMPI PUSH3 0x29E PUSH3 0x193 JUMP JUMPDEST MUL SWAP1 POP JUMPDEST SWAP3 SWAP2 POP POP JUMP JUMPDEST PUSH1 0x0 PUSH3 0x18C PUSH1 0xFF DUP5 AND DUP4 PUSH3 0x1F2 JUMP JUMPDEST DUP1 DUP3 MUL DUP2 ISZERO DUP3 DUP3 DIV DUP5 EQ OR PUSH3 0x2A2 JUMPI PUSH3 0x2A2 PUSH3 0x193 JUMP JUMPDEST PUSH2 0x112D DUP1 PUSH3 0x2E3 PUSH1 0x0 CODECOPY PUSH1 0x0 RETURN INVALID PUSH1 0x80 PUSH1 0x40 MSTORE PUSH1 0x4 CALLDATASIZE LT PUSH2 0x11F JUMPI PUSH1 0x0 CALLDATALOAD PUSH1 0xE0 SHR DUP1 PUSH4 0xD0E30DB0 GT PUSH2 0xA0 JUMPI DUP1 PUSH4 0xF0FC6BCA GT PUSH2 0x64 JUMPI DUP1 PUSH4 0xF0FC6BCA EQ PUSH2 0x32E JUMPI DUP1 PUSH4 0xF7C618C1 EQ PUSH2 0x343 JUMPI DUP1 PUSH4 0xF887EA40 EQ PUSH2 0x363 JUMPI DUP1 PUSH4 0xFFB2C479 EQ PUSH2 0x383 JUMPI DUP1 PUSH4 0xFFD49C84 EQ PUSH2 0x3A3 JUMPI PUSH1 0x0 DUP1 REVERT JUMPDEST DUP1 PUSH4 0xD0E30DB0 EQ PUSH2 0x2AD JUMPI DUP1 PUSH4 0xD4FDA1F2 EQ PUSH2 0x2B5 JUMPI DUP1 PUSH4 0xE2D2E219 EQ PUSH2 0x2E2 JUMPI DUP1 PUSH4 0xECD0C0C3 EQ PUSH2 0x2F8 JUMPI DUP1 PUSH4 0xEFCA2EED EQ PUSH2 0x318 JUMPI PUSH1 0x0 DUP1 REVERT JUMPDEST DUP1 PUSH4 0x4FAB0AE8 GT PUSH2 0xE7 JUMPI DUP1 PUSH4 0x4FAB0AE8 EQ PUSH2 0x1C5 JUMPI DUP1 PUSH4 0x66817DF5 EQ PUSH2 0x1DB JUMPI DUP1 PUSH4 0x997664D7 EQ PUSH2 0x208 JUMPI DUP1 PUSH4 0xAB377DAA EQ PUSH2 0x21E JUMPI DUP1 PUSH4 0xCE7C2AC2 EQ PUSH2 0x256 JUMPI PUSH1 0x0 DUP1 REVERT JUMPDEST DUP1 PUSH4 0x11CE023D EQ PUSH2 0x124 JUMPI DUP1 PUSH4 0x14B6CA96 EQ PUSH2 0x14D JUMPI DUP1 PUSH4 0x28FD3198 EQ PUSH2 0x16F JUMPI DUP1 PUSH4 0x2D48E896 EQ PUSH2 0x18F JUMPI DUP1 PUSH4 0x3A98EF39 EQ PUSH2 0x1AF JUMPI JUMPDEST PUSH1 0x0 DUP1 REVERT JUMPDEST CALLVALUE DUP1 ISZERO PUSH2 0x130 JUMPI PUSH1 0x0 DUP1 REVERT JUMPDEST POP PUSH2 0x13A PUSH1 0xB SLOAD DUP2 JUMP JUMPDEST PUSH1 0x40 MLOAD SWAP1 DUP2 MSTORE PUSH1 0x20 ADD JUMPDEST PUSH1 0x40 MLOAD DUP1 SWAP2 SUB SWAP1 RETURN JUMPDEST CALLVALUE DUP1 ISZERO PUSH2 0x159 JUMPI PUSH1 0x0 DUP1 REVERT JUMPDEST POP PUSH2 0x16D PUSH2 0x168 CALLDATASIZE PUSH1 0x4 PUSH2 0xE7D JUMP JUMPDEST PUSH2 0x3B9 JUMP JUMPDEST STOP JUMPDEST CALLVALUE DUP1 ISZERO PUSH2 0x17B JUMPI PUSH1 0x0 DUP1 REVERT JUMPDEST POP PUSH2 0x13A PUSH2 0x18A CALLDATASIZE PUSH1 0x4 PUSH2 0xEA9 JUMP JUMPDEST PUSH2 0x531 JUMP JUMPDEST CALLVALUE DUP1 ISZERO PUSH2 0x19B JUMPI PUSH1 0x0 DUP1 REVERT JUMPDEST POP PUSH2 0x16D PUSH2 0x1AA CALLDATASIZE PUSH1 0x4 PUSH2 0xECD JUMP JUMPDEST PUSH2 0x5BC JUMP JUMPDEST CALLVALUE DUP1 ISZERO PUSH2 0x1BB JUMPI PUSH1 0x0 DUP1 REVERT JUMPDEST POP PUSH2 0x13A PUSH1 0x7 SLOAD DUP2 JUMP JUMPDEST CALLVALUE DUP1 ISZERO PUSH2 0x1D1 JUMPI PUSH1 0x0 DUP1 REVERT JUMPDEST POP PUSH2 0x13A PUSH1 0xD SLOAD DUP2 JUMP JUMPDEST CALLVALUE DUP1 ISZERO PUSH2 0x1E7 JUMPI PUSH1 0x0 DUP1 REVERT JUMPDEST POP PUSH2 0x13A PUSH2 0x1F6 CALLDATASIZE PUSH1 0x4 PUSH2 0xEA9 JUMP JUMPDEST PUSH1 0x5 PUSH1 0x20 MSTORE PUSH1 0x0 SWAP1 DUP2 MSTORE PUSH1 0x40 SWAP1 KECCAK256 SLOAD DUP2 JUMP JUMPDEST CALLVALUE DUP1 ISZERO PUSH2 0x214 JUMPI PUSH1 0x0 DUP1 REVERT JUMPDEST POP PUSH2 0x13A PUSH1 0x8 SLOAD DUP2 JUMP JUMPDEST CALLVALUE DUP1 ISZERO PUSH2 0x22A JUMPI PUSH1 0x0 DUP1 REVERT JUMPDEST POP PUSH2 0x23E PUSH2 0x239 CALLDATASIZE PUSH1 0x4 PUSH2 0xEEF JUMP JUMPDEST PUSH2 0x5DE JUMP JUMPDEST PUSH1 0x40 MLOAD PUSH1 0x1 PUSH1 0x1 PUSH1 0xA0 SHL SUB SWAP1 SWAP2 AND DUP2 MSTORE PUSH1 0x20 ADD PUSH2 0x144 JUMP JUMPDEST CALLVALUE DUP1 ISZERO PUSH2 0x262 JUMPI PUSH1 0x0 DUP1 REVERT JUMPDEST POP PUSH2 0x292 PUSH2 0x271 CALLDATASIZE PUSH1 0x4 PUSH2 0xEA9 JUMP JUMPDEST PUSH1 0x6 PUSH1 0x20 MSTORE PUSH1 0x0 SWAP1 DUP2 MSTORE PUSH1 0x40 SWAP1 KECCAK256 DUP1 SLOAD PUSH1 0x1 DUP3 ADD SLOAD PUSH1 0x2 SWAP1 SWAP3 ADD SLOAD SWAP1 SWAP2 SWAP1 DUP4 JUMP JUMPDEST PUSH1 0x40 DUP1 MLOAD SWAP4 DUP5 MSTORE PUSH1 0x20 DUP5 ADD SWAP3 SWAP1 SWAP3 MSTORE SWAP1 DUP3 ADD MSTORE PUSH1 0x60 ADD PUSH2 0x144 JUMP JUMPDEST PUSH2 0x16D PUSH2 0x608 JUMP JUMPDEST CALLVALUE DUP1 ISZERO PUSH2 0x2C1 JUMPI PUSH1 0x0 DUP1 REVERT JUMPDEST POP PUSH2 0x13A PUSH2 0x2D0 CALLDATASIZE PUSH1 0x4 PUSH2 0xEA9 JUMP JUMPDEST PUSH1 0x4 PUSH1 0x20 MSTORE PUSH1 0x0 SWAP1 DUP2 MSTORE PUSH1 0x40 SWAP1 KECCAK256 SLOAD DUP2 JUMP JUMPDEST CALLVALUE DUP1 ISZERO PUSH2 0x2EE JUMPI PUSH1 0x0 DUP1 REVERT JUMPDEST POP PUSH2 0x13A PUSH1 0xA SLOAD DUP2 JUMP JUMPDEST CALLVALUE DUP1 ISZERO PUSH2 0x304 JUMPI PUSH1 0x0 DUP1 REVERT JUMPDEST POP PUSH1 0x0 SLOAD PUSH2 0x23E SWAP1 PUSH1 0x1 PUSH1 0x1 PUSH1 0xA0 SHL SUB AND DUP2 JUMP JUMPDEST CALLVALUE DUP1 ISZERO PUSH2 0x324 JUMPI PUSH1 0x0 DUP1 REVERT JUMPDEST POP PUSH2 0x13A PUSH1 0x9 SLOAD DUP2 JUMP JUMPDEST CALLVALUE DUP1 ISZERO PUSH2 0x33A JUMPI PUSH1 0x0 DUP1 REVERT JUMPDEST POP PUSH2 0x16D PUSH2 0x897 JUMP JUMPDEST CALLVALUE DUP1 ISZERO PUSH2 0x34F JUMPI PUSH1 0x0 DUP1 REVERT JUMPDEST POP PUSH1 0x1 SLOAD PUSH2 0x23E SWAP1 PUSH1 0x1 PUSH1 0x1 PUSH1 0xA0 SHL SUB AND DUP2 JUMP JUMPDEST CALLVALUE DUP1 ISZERO PUSH2 0x36F JUMPI PUSH1 0x0 DUP1 REVERT JUMPDEST POP PUSH1 0x2 SLOAD PUSH2 0x23E SWAP1 PUSH1 0x1 PUSH1 0x1 PUSH1 0xA0 SHL SUB AND DUP2 JUMP JUMPDEST CALLVALUE DUP1 ISZERO PUSH2 0x38F JUMPI PUSH1 0x0 DUP1 REVERT JUMPDEST POP PUSH2 0x16D PUSH2 0x39E CALLDATASIZE PUSH1 0x4 PUSH2 0xEEF JUMP JUMPDEST PUSH2 0x8A2 JUMP JUMPDEST CALLVALUE DUP1 ISZERO PUSH2 0x3AF JUMPI PUSH1 0x0 DUP1 REVERT JUMPDEST POP PUSH2 0x13A PUSH1 0xC SLOAD DUP2 JUMP JUMPDEST PUSH1 0x0 SLOAD PUSH1 0x1 PUSH1 0x1 PUSH1 0xA0 SHL SUB AND CALLER EQ PUSH2 0x3D0 JUMPI PUSH1 0x0 DUP1 REVERT JUMPDEST PUSH1 0x1 PUSH1 0x1 PUSH1 0xA0 SHL SUB DUP3 AND PUSH1 0x0 SWAP1 DUP2 MSTORE PUSH1 0x6 PUSH1 0x20 MSTORE PUSH1 0x40 SWAP1 KECCAK256 SLOAD ISZERO PUSH2 0x3F7 JUMPI PUSH2 0x3F7 DUP3 PUSH2 0x9A7 JUMP JUMPDEST PUSH1 0x0 DUP2 GT DUP1 ISZERO PUSH2 0x41D JUMPI POP PUSH1 0x1 PUSH1 0x1 PUSH1 0xA0 SHL SUB DUP3 AND PUSH1 0x0 SWAP1 DUP2 MSTORE PUSH1 0x6 PUSH1 0x20 MSTORE PUSH1 0x40 SWAP1 KECCAK256 SLOAD ISZERO JUMPDEST ISZERO PUSH2 0x483 JUMPI PUSH1 0x3 DUP1 SLOAD PUSH1 0x1 PUSH1 0x1 PUSH1 0xA0 SHL SUB DUP5 AND PUSH1 0x0 DUP2 DUP2 MSTORE PUSH1 0x4 PUSH1 0x20 MSTORE PUSH1 0x40 DUP2 KECCAK256 DUP4 SWAP1 SSTORE PUSH1 0x1 DUP4 ADD DUP5 SSTORE SWAP3 SWAP1 SWAP3 MSTORE PUSH32 0xC2575A0E9E593C00F959F8C92F12DB2869C3395A3B0502D05E2516446F71F85B ADD DUP1 SLOAD PUSH1 0x1 PUSH1 0x1 PUSH1 0xA0 SHL SUB NOT AND SWAP1 SWAP2 OR SWAP1 SSTORE PUSH2 0x4B6 JUMP JUMPDEST DUP1 ISZERO DUP1 ISZERO PUSH2 0x4A8 JUMPI POP PUSH1 0x1 PUSH1 0x1 PUSH1 0xA0 SHL SUB DUP3 AND PUSH1 0x0 SWAP1 DUP2 MSTORE PUSH1 0x6 PUSH1 0x20 MSTORE PUSH1 0x40 SWAP1 KECCAK256 SLOAD ISZERO ISZERO JUMPDEST ISZERO PUSH2 0x4B6 JUMPI PUSH2 0x4B6 DUP3 PUSH2 0xA64 JUMP JUMPDEST PUSH1 0x1 PUSH1 0x1 PUSH1 0xA0 SHL SUB DUP3 AND PUSH1 0x0 SWAP1 DUP2 MSTORE PUSH1 0x6 PUSH1 0x20 MSTORE PUSH1 0x40 SWAP1 KECCAK256 SLOAD PUSH1 0x7 SLOAD PUSH2 0x4E7 SWAP2 DUP4 SWAP2 PUSH2 0x4E1 SWAP2 PUSH2 0xB79 JUMP JUMPDEST SWAP1 PUSH2 0xB8E JUMP JUMPDEST PUSH1 0x7 SSTORE PUSH1 0x1 PUSH1 0x1 PUSH1 0xA0 SHL SUB DUP3 AND PUSH1 0x0 SWAP1 DUP2 MSTORE PUSH1 0x6 PUSH1 0x20 MSTORE PUSH1 0x40 SWAP1 KECCAK256 DUP2 SWAP1 SSTORE PUSH2 0x50E DUP2 PUSH2 0xB9A JUMP JUMPDEST PUSH1 0x1 PUSH1 0x1 PUSH1 0xA0 SHL SUB SWAP1 SWAP3 AND PUSH1 0x0 SWAP1 DUP2 MSTORE PUSH1 0x6 PUSH1 0x20 MSTORE PUSH1 0x40 SWAP1 KECCAK256 PUSH1 0x1 ADD SWAP2 SWAP1 SWAP2 SSTORE POP JUMP JUMPDEST PUSH1 0x1 PUSH1 0x1 PUSH1 0xA0 SHL SUB DUP2 AND PUSH1 0x0 SWAP1 DUP2 MSTORE PUSH1 0x6 PUSH1 0x20 MSTORE PUSH1 0x40 DUP2 KECCAK256 SLOAD DUP2 SUB PUSH2 0x558 JUMPI POP PUSH1 0x0 SWAP2 SWAP1 POP JUMP JUMPDEST PUSH1 0x1 PUSH1 0x1 PUSH1 0xA0 SHL SUB DUP3 AND PUSH1 0x0 SWAP1 DUP2 MSTORE PUSH1 0x6 PUSH1 0x20 MSTORE PUSH1 0x40 DUP2 KECCAK256 SLOAD PUSH2 0x57A SWAP1 PUSH2 0xB9A JUMP JUMPDEST PUSH1 0x1 PUSH1 0x1 PUSH1 0xA0 SHL SUB DUP5 AND PUSH1 0x0 SWAP1 DUP2 MSTORE PUSH1 0x6 PUSH1 0x20 MSTORE PUSH1 0x40 SWAP1 KECCAK256 PUSH1 0x1 ADD SLOAD SWAP1 SWAP2 POP DUP1 DUP3 GT PUSH2 0x5AA JUMPI POP PUSH1 0x0 SWAP4 SWAP3 POP POP POP JUMP JUMPDEST PUSH2 0x5B4 DUP3 DUP3 PUSH2 0xB79 JUMP JUMPDEST SWAP5 SWAP4 POP POP POP POP JUMP JUMPDEST PUSH1 0x0 SLOAD PUSH1 0x1 PUSH1 0x1 PUSH1 0xA0 SHL SUB AND CALLER EQ PUSH2 0x5D3 JUMPI PUSH1 0x0 DUP1 REVERT JUMPDEST PUSH1 0xC SWAP2 SWAP1 SWAP2 SSTORE PUSH1 0xD SSTORE JUMP JUMPDEST PUSH1 0x3 DUP2 DUP2 SLOAD DUP2 LT PUSH2 0x5EE JUMPI PUSH1 0x0 DUP1 REVERT JUMPDEST PUSH1 0x0 SWAP2 DUP3 MSTORE PUSH1 0x20 SWAP1 SWAP2 KECCAK256 ADD SLOAD PUSH1 0x1 PUSH1 0x1 PUSH1 0xA0 SHL SUB AND SWAP1 POP DUP2 JUMP JUMPDEST PUSH1 0x0 SLOAD PUSH1 0x1 PUSH1 0x1 PUSH1 0xA0 SHL SUB AND CALLER EQ PUSH2 0x61F JUMPI PUSH1 0x0 DUP1 REVERT JUMPDEST PUSH1 0x1 SLOAD PUSH1 0x40 MLOAD PUSH4 0x70A08231 PUSH1 0xE0 SHL DUP2 MSTORE ADDRESS PUSH1 0x4 DUP3 ADD MSTORE PUSH1 0x0 SWAP2 PUSH1 0x1 PUSH1 0x1 PUSH1 0xA0 SHL SUB AND SWAP1 PUSH4 0x70A08231 SWAP1 PUSH1 0x24 ADD PUSH1 0x20 PUSH1 0x40 MLOAD DUP1 DUP4 SUB DUP2 DUP7 GAS STATICCALL ISZERO DUP1 ISZERO PUSH2 0x668 JUMPI RETURNDATASIZE PUSH1 0x0 DUP1 RETURNDATACOPY RETURNDATASIZE PUSH1 0x0 REVERT JUMPDEST POP POP POP POP PUSH1 0x40 MLOAD RETURNDATASIZE PUSH1 0x1F NOT PUSH1 0x1F DUP3 ADD AND DUP3 ADD DUP1 PUSH1 0x40 MSTORE POP DUP2 ADD SWAP1 PUSH2 0x68C SWAP2 SWAP1 PUSH2 0xF08 JUMP JUMPDEST PUSH1 0x40 DUP1 MLOAD PUSH1 0x2 DUP1 DUP3 MSTORE PUSH1 0x60 DUP3 ADD DUP4 MSTORE SWAP3 SWAP4 POP PUSH1 0x0 SWAP3 SWAP1 SWAP2 PUSH1 0x20 DUP4 ADD SWAP1 DUP1 CALLDATASIZE DUP4 CALLDATACOPY POP POP PUSH1 0x2 SLOAD PUSH1 0x40 DUP1 MLOAD PUSH4 0x15AB88C9 PUSH1 0xE3 SHL DUP2 MSTORE SWAP1 MLOAD SWAP4 SWAP5 POP PUSH1 0x1 PUSH1 0x1 PUSH1 0xA0 SHL SUB SWAP1 SWAP2 AND SWAP3 PUSH4 0xAD5C4648 SWAP3 POP PUSH1 0x4 DUP1 DUP4 ADD SWAP3 PUSH1 0x20 SWAP3 SWAP2 SWAP1 DUP3 SWAP1 SUB ADD DUP2 DUP7 GAS STATICCALL ISZERO DUP1 ISZERO PUSH2 0x6FB JUMPI RETURNDATASIZE PUSH1 0x0 DUP1 RETURNDATACOPY RETURNDATASIZE PUSH1 0x0 REVERT JUMPDEST POP POP POP POP PUSH1 0x40 MLOAD RETURNDATASIZE PUSH1 0x1F NOT PUSH1 0x1F DUP3 ADD AND DUP3 ADD DUP1 PUSH1 0x40 MSTORE POP DUP2 ADD SWAP1 PUSH2 0x71F SWAP2 SWAP1 PUSH2 0xF21 JUMP JUMPDEST DUP2 PUSH1 0x0 DUP2 MLOAD DUP2 LT PUSH2 0x732 JUMPI PUSH2 0x732 PUSH2 0xF3E JUMP JUMPDEST PUSH1 0x1 PUSH1 0x1 PUSH1 0xA0 SHL SUB SWAP3 DUP4 AND PUSH1 0x20 SWAP2 DUP3 MUL SWAP3 SWAP1 SWAP3 ADD ADD MSTORE PUSH1 0x1 DUP1 SLOAD DUP4 MLOAD SWAP3 AND SWAP2 DUP4 SWAP2 SWAP1 DUP2 LT PUSH2 0x762 JUMPI PUSH2 0x762 PUSH2 0xF3E JUMP JUMPDEST PUSH1 0x1 PUSH1 0x1 PUSH1 0xA0 SHL SUB SWAP3 DUP4 AND PUSH1 0x20 SWAP2 DUP3 MUL SWAP3 SWAP1 SWAP3 ADD ADD MSTORE PUSH1 0x2 SLOAD PUSH1 0x40 MLOAD PUSH4 0xB6F9DE95 PUSH1 0xE0 SHL DUP2 MSTORE SWAP2 AND SWAP1 PUSH4 0xB6F9DE95 SWAP1 CALLVALUE SWAP1 PUSH2 0x7A8 SWAP1 PUSH1 0x0 SWAP1 DUP7 SWAP1 ADDRESS SWAP1 TIMESTAMP SWAP1 PUSH1 0x4 ADD PUSH2 0xF54 JUMP JUMPDEST PUSH1 0x0 PUSH1 0x40 MLOAD DUP1 DUP4 SUB DUP2 DUP6 DUP9 DUP1 EXTCODESIZE ISZERO DUP1 ISZERO PUSH2 0x7C1 JUMPI PUSH1 0x0 DUP1 REVERT JUMPDEST POP GAS CALL ISZERO DUP1 ISZERO PUSH2 0x7D5 JUMPI RETURNDATASIZE PUSH1 0x0 DUP1 RETURNDATACOPY RETURNDATASIZE PUSH1 0x0 REVERT JUMPDEST POP POP PUSH1 0x1 SLOAD PUSH1 0x40 MLOAD PUSH4 0x70A08231 PUSH1 0xE0 SHL DUP2 MSTORE ADDRESS PUSH1 0x4 DUP3 ADD MSTORE PUSH1 0x0 SWAP5 POP PUSH2 0x855 SWAP4 POP DUP7 SWAP3 POP PUSH1 0x1 PUSH1 0x1 PUSH1 0xA0 SHL SUB SWAP1 SWAP2 AND SWAP1 PUSH4 0x70A08231 SWAP1 PUSH1 0x24 ADD PUSH1 0x20 PUSH1 0x40 MLOAD DUP1 DUP4 SUB DUP2 DUP7 GAS STATICCALL ISZERO DUP1 ISZERO PUSH2 0x82B JUMPI RETURNDATASIZE PUSH1 0x0 DUP1 RETURNDATACOPY RETURNDATASIZE PUSH1 0x0 REVERT JUMPDEST POP POP POP POP PUSH1 0x40 MLOAD RETURNDATASIZE PUSH1 0x1F NOT PUSH1 0x1F DUP3 ADD AND DUP3 ADD DUP1 PUSH1 0x40 MSTORE POP DUP2 ADD SWAP1 PUSH2 0x84F SWAP2 SWAP1 PUSH2 0xF08 JUMP JUMPDEST SWAP1 PUSH2 0xB79 JUMP JUMPDEST PUSH1 0x8 SLOAD SWAP1 SWAP2 POP PUSH2 0x865 SWAP1 DUP3 PUSH2 0xB8E JUMP JUMPDEST PUSH1 0x8 SSTORE PUSH1 0x7 SLOAD PUSH1 0xB SLOAD PUSH2 0x88F SWAP2 PUSH2 0x886 SWAP2 PUSH2 0x880 SWAP1 DUP6 PUSH2 0xBB7 JUMP JUMPDEST SWAP1 PUSH2 0xBC3 JUMP JUMPDEST PUSH1 0xA SLOAD SWAP1 PUSH2 0xB8E JUMP JUMPDEST PUSH1 0xA SSTORE POP POP POP JUMP JUMPDEST PUSH2 0x8A0 CALLER PUSH2 0x9A7 JUMP JUMPDEST JUMP JUMPDEST PUSH1 0x0 SLOAD PUSH1 0x1 PUSH1 0x1 PUSH1 0xA0 SHL SUB AND CALLER EQ PUSH2 0x8B9 JUMPI PUSH1 0x0 DUP1 REVERT JUMPDEST PUSH1 0x3 SLOAD PUSH1 0x0 DUP2 SWAP1 SUB PUSH2 0x8C9 JUMPI POP POP JUMP JUMPDEST PUSH1 0x0 DUP1 GAS SWAP1 POP PUSH1 0x0 JUMPDEST DUP5 DUP4 LT DUP1 ISZERO PUSH2 0x8E0 JUMPI POP DUP4 DUP2 LT JUMPDEST ISZERO PUSH2 0x99F JUMPI DUP4 PUSH1 0xE SLOAD LT PUSH2 0x8F4 JUMPI PUSH1 0x0 PUSH1 0xE SSTORE JUMPDEST PUSH2 0x926 PUSH1 0x3 PUSH1 0xE SLOAD DUP2 SLOAD DUP2 LT PUSH2 0x90C JUMPI PUSH2 0x90C PUSH2 0xF3E JUMP JUMPDEST PUSH1 0x0 SWAP2 DUP3 MSTORE PUSH1 0x20 SWAP1 SWAP2 KECCAK256 ADD SLOAD PUSH1 0x1 PUSH1 0x1 PUSH1 0xA0 SHL SUB AND PUSH2 0xBCF JUMP JUMPDEST ISZERO PUSH2 0x95D JUMPI PUSH2 0x95D PUSH1 0x3 PUSH1 0xE SLOAD DUP2 SLOAD DUP2 LT PUSH2 0x943 JUMPI PUSH2 0x943 PUSH2 0xF3E JUMP JUMPDEST PUSH1 0x0 SWAP2 DUP3 MSTORE PUSH1 0x20 SWAP1 SWAP2 KECCAK256 ADD SLOAD PUSH1 0x1 PUSH1 0x1 PUSH1 0xA0 SHL SUB AND PUSH2 0x9A7 JUMP JUMPDEST PUSH2 0x972 PUSH2 0x96B GAS DUP5 SWAP1 PUSH2 0xB79 JUMP JUMPDEST DUP5 SWAP1 PUSH2 0xB8E JUMP JUMPDEST SWAP3 POP GAS PUSH1 0xE DUP1 SLOAD SWAP2 SWAP4 POP PUSH1 0x0 PUSH2 0x987 DUP4 PUSH2 0xFD4 JUMP JUMPDEST SWAP2 SWAP1 POP SSTORE POP DUP1 DUP1 PUSH2 0x997 SWAP1 PUSH2 0xFD4 JUMP JUMPDEST SWAP2 POP POP PUSH2 0x8D2 JUMP JUMPDEST POP POP POP POP JUMPDEST POP JUMP JUMPDEST PUSH1 0x1 PUSH1 0x1 PUSH1 0xA0 SHL SUB DUP2 AND PUSH1 0x0 SWAP1 DUP2 MSTORE PUSH1 0x6 PUSH1 0x20 MSTORE PUSH1 0x40 DUP2 KECCAK256 SLOAD SWAP1 SUB PUSH2 0x9C9 JUMPI POP JUMP JUMPDEST PUSH1 0x0 PUSH2 0x9D4 DUP3 PUSH2 0x531 JUMP JUMPDEST SWAP1 POP DUP1 ISZERO PUSH2 0xA60 JUMPI PUSH1 0x9 SLOAD PUSH2 0x9E9 SWAP1 DUP3 PUSH2 0xB8E JUMP JUMPDEST PUSH1 0x9 SSTORE PUSH1 0x1 SLOAD PUSH2 0xA03 SWAP1 PUSH1 0x1 PUSH1 0x1 PUSH1 0xA0 SHL SUB AND DUP4 DUP4 PUSH2 0xC14 JUMP JUMPDEST PUSH1 0x1 PUSH1 0x1 PUSH1 0xA0 SHL SUB DUP3 AND PUSH1 0x0 SWAP1 DUP2 MSTORE PUSH1 0x5 PUSH1 0x20 SWAP1 DUP2 MSTORE PUSH1 0x40 DUP1 DUP4 KECCAK256 TIMESTAMP SWAP1 SSTORE PUSH1 0x6 SWAP1 SWAP2 MSTORE SWAP1 KECCAK256 PUSH1 0x2 ADD SLOAD PUSH2 0xA36 SWAP1 DUP3 PUSH2 0xB8E JUMP JUMPDEST PUSH1 0x1 PUSH1 0x1 PUSH1 0xA0 SHL SUB DUP4 AND PUSH1 0x0 SWAP1 DUP2 MSTORE PUSH1 0x6 PUSH1 0x20 MSTORE PUSH1 0x40 SWAP1 KECCAK256 PUSH1 0x2 DUP2 ADD SWAP2 SWAP1 SWAP2 SSTORE SLOAD PUSH2 0x50E SWAP1 PUSH2 0xB9A JUMP JUMPDEST POP POP JUMP JUMPDEST PUSH1 0x3 DUP1 SLOAD PUSH2 0xA74 SWAP1 PUSH1 0x1 SWAP1 PUSH2 0xFED JUMP JUMPDEST DUP2 SLOAD DUP2 LT PUSH2 0xA84 JUMPI PUSH2 0xA84 PUSH2 0xF3E JUMP JUMPDEST PUSH1 0x0 SWAP2 DUP3 MSTORE PUSH1 0x20 DUP1 DUP4 KECCAK256 SWAP1 SWAP2 ADD SLOAD PUSH1 0x1 PUSH1 0x1 PUSH1 0xA0 SHL SUB DUP5 DUP2 AND DUP5 MSTORE PUSH1 0x4 SWAP1 SWAP3 MSTORE PUSH1 0x40 SWAP1 SWAP3 KECCAK256 SLOAD PUSH1 0x3 DUP1 SLOAD SWAP3 SWAP1 SWAP4 AND SWAP3 SWAP2 DUP2 LT PUSH2 0xAC2 JUMPI PUSH2 0xAC2 PUSH2 0xF3E JUMP JUMPDEST PUSH1 0x0 SWAP2 DUP3 MSTORE PUSH1 0x20 DUP1 DUP4 KECCAK256 SWAP2 SWAP1 SWAP2 ADD DUP1 SLOAD PUSH1 0x1 PUSH1 0x1 PUSH1 0xA0 SHL SUB NOT AND PUSH1 0x1 PUSH1 0x1 PUSH1 0xA0 SHL SUB SWAP5 DUP6 AND OR SWAP1 SSTORE SWAP2 DUP4 AND DUP2 MSTORE PUSH1 0x4 SWAP2 DUP3 SWAP1 MSTORE PUSH1 0x40 DUP2 KECCAK256 SLOAD PUSH1 0x3 DUP1 SLOAD SWAP2 SWAP4 SWAP3 SWAP2 PUSH2 0xB0E SWAP1 PUSH1 0x1 SWAP1 PUSH2 0xFED JUMP JUMPDEST DUP2 SLOAD DUP2 LT PUSH2 0xB1E JUMPI PUSH2 0xB1E PUSH2 0xF3E JUMP JUMPDEST PUSH1 0x0 SWAP2 DUP3 MSTORE PUSH1 0x20 DUP1 DUP4 KECCAK256 SWAP1 SWAP2 ADD SLOAD PUSH1 0x1 PUSH1 0x1 PUSH1 0xA0 SHL SUB AND DUP4 MSTORE DUP3 ADD SWAP3 SWAP1 SWAP3 MSTORE PUSH1 0x40 ADD SWAP1 KECCAK256 SSTORE PUSH1 0x3 DUP1 SLOAD DUP1 PUSH2 0xB54 JUMPI PUSH2 0xB54 PUSH2 0x1000 JUMP JUMPDEST PUSH1 0x0 DUP3 DUP2 MSTORE PUSH1 0x20 SWAP1 KECCAK256 DUP2 ADD PUSH1 0x0 NOT SWAP1 DUP2 ADD DUP1 SLOAD PUSH1 0x1 PUSH1 0x1 PUSH1 0xA0 SHL SUB NOT AND SWAP1 SSTORE ADD SWAP1 SSTORE POP JUMP JUMPDEST PUSH1 0x0 PUSH2 0xB85 DUP3 DUP5 PUSH2 0xFED JUMP JUMPDEST SWAP1 POP JUMPDEST SWAP3 SWAP2 POP POP JUMP JUMPDEST PUSH1 0x0 PUSH2 0xB85 DUP3 DUP5 PUSH2 0x1016 JUMP JUMPDEST PUSH1 0x0 PUSH2 0xB88 PUSH1 0xB SLOAD PUSH2 0x880 PUSH1 0xA SLOAD DUP6 PUSH2 0xBB7 SWAP1 SWAP2 SWAP1 PUSH4 0xFFFFFFFF AND JUMP JUMPDEST PUSH1 0x0 PUSH2 0xB85 DUP3 DUP5 PUSH2 0x1029 JUMP JUMPDEST PUSH1 0x0 PUSH2 0xB85 DUP3 DUP5 PUSH2 0x1040 JUMP JUMPDEST PUSH1 0xC SLOAD PUSH1 0x1 PUSH1 0x1 PUSH1 0xA0 SHL SUB DUP3 AND PUSH1 0x0 SWAP1 DUP2 MSTORE PUSH1 0x5 PUSH1 0x20 MSTORE PUSH1 0x40 DUP2 KECCAK256 SLOAD SWAP1 SWAP2 TIMESTAMP SWAP2 PUSH2 0xBF9 SWAP2 SWAP1 PUSH2 0x1016 JUMP JUMPDEST LT DUP1 ISZERO PUSH2 0xB88 JUMPI POP PUSH1 0xD SLOAD PUSH2 0xC0D DUP4 PUSH2 0x531 JUMP JUMPDEST GT SWAP3 SWAP2 POP POP JUMP JUMPDEST PUSH1 0x40 DUP1 MLOAD PUSH1 0x1 PUSH1 0x1 PUSH1 0xA0 SHL SUB DUP5 AND PUSH1 0x24 DUP3 ADD MSTORE PUSH1 0x44 DUP1 DUP3 ADD DUP5 SWAP1 MSTORE DUP3 MLOAD DUP1 DUP4 SUB SWAP1 SWAP2 ADD DUP2 MSTORE PUSH1 0x64 SWAP1 SWAP2 ADD SWAP1 SWAP2 MSTORE PUSH1 0x20 DUP2 ADD DUP1 MLOAD PUSH1 0x1 PUSH1 0x1 PUSH1 0xE0 SHL SUB AND PUSH4 0xA9059CBB PUSH1 0xE0 SHL OR SWAP1 MSTORE PUSH2 0xC66 SWAP1 DUP5 SWAP1 PUSH2 0xC6B JUMP JUMPDEST POP POP POP JUMP JUMPDEST PUSH1 0x0 PUSH2 0xCC0 DUP3 PUSH1 0x40 MLOAD DUP1 PUSH1 0x40 ADD PUSH1 0x40 MSTORE DUP1 PUSH1 0x20 DUP2 MSTORE PUSH1 0x20 ADD PUSH32 0x5361666545524332303A206C6F772D6C6576656C2063616C6C206661696C6564 DUP2 MSTORE POP DUP6 PUSH1 0x1 PUSH1 0x1 PUSH1 0xA0 SHL SUB AND PUSH2 0xD45 SWAP1 SWAP3 SWAP2 SWAP1 PUSH4 0xFFFFFFFF AND JUMP JUMPDEST SWAP1 POP DUP1 MLOAD PUSH1 0x0 EQ DUP1 PUSH2 0xCE1 JUMPI POP DUP1 DUP1 PUSH1 0x20 ADD SWAP1 MLOAD DUP2 ADD SWAP1 PUSH2 0xCE1 SWAP2 SWAP1 PUSH2 0x1062 JUMP JUMPDEST PUSH2 0xC66 JUMPI PUSH1 0x40 MLOAD PUSH3 0x461BCD PUSH1 0xE5 SHL DUP2 MSTORE PUSH1 0x20 PUSH1 0x4 DUP3 ADD MSTORE PUSH1 0x2A PUSH1 0x24 DUP3 ADD MSTORE PUSH32 0x5361666545524332303A204552433230206F7065726174696F6E20646964206E PUSH1 0x44 DUP3 ADD MSTORE PUSH10 0x1BDD081CDD58D8D95959 PUSH1 0xB2 SHL PUSH1 0x64 DUP3 ADD MSTORE PUSH1 0x84 ADD JUMPDEST PUSH1 0x40 MLOAD DUP1 SWAP2 SUB SWAP1 REVERT JUMPDEST PUSH1 0x60 PUSH2 0x5B4 DUP5 DUP5 PUSH1 0x0 DUP6 DUP6 PUSH1 0x0 DUP1 DUP7 PUSH1 0x1 PUSH1 0x1 PUSH1 0xA0 SHL SUB AND DUP6 DUP8 PUSH1 0x40 MLOAD PUSH2 0xD6C SWAP2 SWAP1 PUSH2 0x10A8 JUMP JUMPDEST PUSH1 0x0 PUSH1 0x40 MLOAD DUP1 DUP4 SUB DUP2 DUP6 DUP8 GAS CALL SWAP3 POP POP POP RETURNDATASIZE DUP1 PUSH1 0x0 DUP2 EQ PUSH2 0xDA9 JUMPI PUSH1 0x40 MLOAD SWAP2 POP PUSH1 0x1F NOT PUSH1 0x3F RETURNDATASIZE ADD AND DUP3 ADD PUSH1 0x40 MSTORE RETURNDATASIZE DUP3 MSTORE RETURNDATASIZE PUSH1 0x0 PUSH1 0x20 DUP5 ADD RETURNDATACOPY PUSH2 0xDAE JUMP JUMPDEST PUSH1 0x60 SWAP2 POP JUMPDEST POP SWAP2 POP SWAP2 POP PUSH2 0xDBF DUP8 DUP4 DUP4 DUP8 PUSH2 0xDCA JUMP JUMPDEST SWAP8 SWAP7 POP POP POP POP POP POP POP JUMP JUMPDEST PUSH1 0x60 DUP4 ISZERO PUSH2 0xE39 JUMPI DUP3 MLOAD PUSH1 0x0 SUB PUSH2 0xE32 JUMPI PUSH1 0x1 PUSH1 0x1 PUSH1 0xA0 SHL SUB DUP6 AND EXTCODESIZE PUSH2 0xE32 JUMPI PUSH1 0x40 MLOAD PUSH3 0x461BCD PUSH1 0xE5 SHL DUP2 MSTORE PUSH1 0x20 PUSH1 0x4 DUP3 ADD MSTORE PUSH1 0x1D PUSH1 0x24 DUP3 ADD MSTORE PUSH32 0x416464726573733A2063616C6C20746F206E6F6E2D636F6E7472616374000000 PUSH1 0x44 DUP3 ADD MSTORE PUSH1 0x64 ADD PUSH2 0xD3C JUMP JUMPDEST POP DUP2 PUSH2 0x5B4 JUMP JUMPDEST PUSH2 0x5B4 DUP4 DUP4 DUP2 MLOAD ISZERO PUSH2 0xE4E JUMPI DUP2 MLOAD DUP1 DUP4 PUSH1 0x20 ADD REVERT JUMPDEST DUP1 PUSH1 0x40 MLOAD PUSH3 0x461BCD PUSH1 0xE5 SHL DUP2 MSTORE PUSH1 0x4 ADD PUSH2 0xD3C SWAP2 SWAP1 PUSH2 0x10C4 JUMP JUMPDEST PUSH1 0x1 PUSH1 0x1 PUSH1 0xA0 SHL SUB DUP2 AND DUP2 EQ PUSH2 0x9A4 JUMPI PUSH1 0x0 DUP1 REVERT JUMPDEST PUSH1 0x0 DUP1 PUSH1 0x40 DUP4 DUP6 SUB SLT ISZERO PUSH2 0xE90 JUMPI PUSH1 0x0 DUP1 REVERT JUMPDEST DUP3 CALLDATALOAD PUSH2 0xE9B DUP2 PUSH2 0xE68 JUMP JUMPDEST SWAP5 PUSH1 0x20 SWAP4 SWAP1 SWAP4 ADD CALLDATALOAD SWAP4 POP POP POP JUMP JUMPDEST PUSH1 0x0 PUSH1 0x20 DUP3 DUP5 SUB SLT ISZERO PUSH2 0xEBB JUMPI PUSH1 0x0 DUP1 REVERT JUMPDEST DUP2 CALLDATALOAD PUSH2 0xEC6 DUP2 PUSH2 0xE68 JUMP JUMPDEST SWAP4 SWAP3 POP POP POP JUMP JUMPDEST PUSH1 0x0 DUP1 PUSH1 0x40 DUP4 DUP6 SUB SLT ISZERO PUSH2 0xEE0 JUMPI PUSH1 0x0 DUP1 REVERT JUMPDEST POP POP DUP1 CALLDATALOAD SWAP3 PUSH1 0x20 SWAP1 SWAP2 ADD CALLDATALOAD SWAP2 POP JUMP JUMPDEST PUSH1 0x0 PUSH1 0x20 DUP3 DUP5 SUB SLT ISZERO PUSH2 0xF01 JUMPI PUSH1 0x0 DUP1 REVERT JUMPDEST POP CALLDATALOAD SWAP2 SWAP1 POP JUMP JUMPDEST PUSH1 0x0 PUSH1 0x20 DUP3 DUP5 SUB SLT ISZERO PUSH2 0xF1A JUMPI PUSH1 0x0 DUP1 REVERT JUMPDEST POP MLOAD SWAP2 SWAP1 POP JUMP JUMPDEST PUSH1 0x0 PUSH1 0x20 DUP3 DUP5 SUB SLT ISZERO PUSH2 0xF33 JUMPI PUSH1 0x0 DUP1 REVERT JUMPDEST DUP2 MLOAD PUSH2 0xEC6 DUP2 PUSH2 0xE68 JUMP JUMPDEST PUSH4 0x4E487B71 PUSH1 0xE0 SHL PUSH1 0x0 MSTORE PUSH1 0x32 PUSH1 0x4 MSTORE PUSH1 0x24 PUSH1 0x0 REVERT JUMPDEST PUSH1 0x0 PUSH1 0x80 DUP3 ADD DUP7 DUP4 MSTORE PUSH1 0x20 PUSH1 0x80 DUP2 DUP6 ADD MSTORE DUP2 DUP8 MLOAD DUP1 DUP5 MSTORE PUSH1 0xA0 DUP7 ADD SWAP2 POP DUP3 DUP10 ADD SWAP4 POP PUSH1 0x0 JUMPDEST DUP2 DUP2 LT ISZERO PUSH2 0xF9E JUMPI DUP5 MLOAD PUSH1 0x1 PUSH1 0x1 PUSH1 0xA0 SHL SUB AND DUP4 MSTORE SWAP4 DUP4 ADD SWAP4 SWAP2 DUP4 ADD SWAP2 PUSH1 0x1 ADD PUSH2 0xF79 JUMP JUMPDEST POP POP PUSH1 0x1 PUSH1 0x1 PUSH1 0xA0 SHL SUB SWAP7 SWAP1 SWAP7 AND PUSH1 0x40 DUP6 ADD MSTORE POP POP POP PUSH1 0x60 ADD MSTORE SWAP3 SWAP2 POP POP JUMP JUMPDEST PUSH4 0x4E487B71 PUSH1 0xE0 SHL PUSH1 0x0 MSTORE PUSH1 0x11 PUSH1 0x4 MSTORE PUSH1 0x24 PUSH1 0x0 REVERT JUMPDEST PUSH1 0x0 PUSH1 0x1 DUP3 ADD PUSH2 0xFE6 JUMPI PUSH2 0xFE6 PUSH2 0xFBE JUMP JUMPDEST POP PUSH1 0x1 ADD SWAP1 JUMP JUMPDEST DUP2 DUP2 SUB DUP2 DUP2 GT ISZERO PUSH2 0xB88 JUMPI PUSH2 0xB88 PUSH2 0xFBE JUMP JUMPDEST PUSH4 0x4E487B71 PUSH1 0xE0 SHL PUSH1 0x0 MSTORE PUSH1 0x31 PUSH1 0x4 MSTORE PUSH1 0x24 PUSH1 0x0 REVERT JUMPDEST DUP1 DUP3 ADD DUP1 DUP3 GT ISZERO PUSH2 0xB88 JUMPI PUSH2 0xB88 PUSH2 0xFBE JUMP JUMPDEST DUP1 DUP3 MUL DUP2 ISZERO DUP3 DUP3 DIV DUP5 EQ OR PUSH2 0xB88 JUMPI PUSH2 0xB88 PUSH2 0xFBE JUMP JUMPDEST PUSH1 0x0 DUP3 PUSH2 0x105D JUMPI PUSH4 0x4E487B71 PUSH1 0xE0 SHL PUSH1 0x0 MSTORE PUSH1 0x12 PUSH1 0x4 MSTORE PUSH1 0x24 PUSH1 0x0 REVERT JUMPDEST POP DIV SWAP1 JUMP JUMPDEST PUSH1 0x0 PUSH1 0x20 DUP3 DUP5 SUB SLT ISZERO PUSH2 0x1074 JUMPI PUSH1 0x0 DUP1 REVERT JUMPDEST DUP2 MLOAD DUP1 ISZERO ISZERO DUP2 EQ PUSH2 0xEC6 JUMPI PUSH1 0x0 DUP1 REVERT JUMPDEST PUSH1 0x0 JUMPDEST DUP4 DUP2 LT ISZERO PUSH2 0x109F JUMPI DUP2 DUP2 ADD MLOAD DUP4 DUP3 ADD MSTORE PUSH1 0x20 ADD PUSH2 0x1087 JUMP JUMPDEST POP POP PUSH1 0x0 SWAP2 ADD MSTORE JUMP JUMPDEST PUSH1 0x0 DUP3 MLOAD PUSH2 0x10BA DUP2 DUP5 PUSH1 0x20 DUP8 ADD PUSH2 0x1084 JUMP JUMPDEST SWAP2 SWAP1 SWAP2 ADD SWAP3 SWAP2 POP POP JUMP JUMPDEST PUSH1 0x20 DUP2 MSTORE PUSH1 0x0 DUP3 MLOAD DUP1 PUSH1 0x20 DUP5 ADD MSTORE PUSH2 0x10E3 DUP2 PUSH1 0x40 DUP6 ADD PUSH1 0x20 DUP8 ADD PUSH2 0x1084 JUMP JUMPDEST PUSH1 0x1F ADD PUSH1 0x1F NOT AND SWAP2 SWAP1 SWAP2 ADD PUSH1 0x40 ADD SWAP3 SWAP2 POP POP JUMP INVALID LOG2 PUSH5 0x6970667358 0x22 SLT KECCAK256 0x1F SLT 0x22 DUP6 ISZERO 0xCE LOG1 0xBB DUP7 DUP10 AND SWAP4 DUP1 PUSH3 0x35E558 DUP9 0xC4 PUSH31 0x54336A1E648532A3E196FB7964736F6C634300081300330000000000000000 "},"methodIdentifiers":{"_token()":"ecd0c0c3","claimDividend()":"f0fc6bca","deposit()":"d0e30db0","dividendsPerShare()":"e2d2e219","dividendsPerShareAccuracyFactor()":"11ce023d","getUnpaidEarnings(address)":"28fd3198","minDistribution()":"4fab0ae8","minPeriod()":"ffd49c84","process(uint256)":"ffb2c479","rewardToken()":"f7c618c1","router()":"f887ea40","setDistributionCriteria(uint256,uint256)":"2d48e896","setShare(address,uint256)":"14b6ca96","shareholderClaims(address)":"66817df5","shareholderIndexes(address)":"d4fda1f2","shareholders(uint256)":"ab377daa","shares(address)":"ce7c2ac2","totalDistributed()":"efca2eed","totalDividends()":"997664d7","totalShares()":"3a98ef39"}}}}}