{
  "_format": "hh-sol-artifact-1",
  "contractName": "BuybackBabyToken",
  "sourceName": "contracts/launchpad/BuybackBabyToken.sol",
  "abi": [
    {
      "inputs": [
        {
          "internalType": "string",
          "name": "name_",
          "type": "string"
        },
        {
          "internalType": "string",
          "name": "symbol_",
          "type": "string"
        },
        {
          "internalType": "uint256",
          "name": "totalSupply_",
          "type": "uint256"
        },
        {
          "internalType": "address",
          "name": "rewardToken_",
          "type": "address"
        },
        {
          "internalType": "address",
          "name": "router_",
          "type": "address"
        },
        {
          "internalType": "uint256[5]",
          "name": "feeSettings_",
          "type": "uint256[5]"
        },
        {
          "internalType": "address",
          "name": "serviceFeeReceiver_",
          "type": "address"
        },
        {
          "internalType": "uint256",
          "name": "serviceFee_",
          "type": "uint256"
        }
      ],
      "stateMutability": "payable",
      "type": "constructor"
    },
    {
      "anonymous": false,
      "inputs": [
        {
          "indexed": true,
          "internalType": "address",
          "name": "owner",
          "type": "address"
        },
        {
          "indexed": true,
          "internalType": "address",
          "name": "spender",
          "type": "address"
        },
        {
          "indexed": false,
          "internalType": "uint256",
          "name": "value",
          "type": "uint256"
        }
      ],
      "name": "Approval",
      "type": "event"
    },
    {
      "anonymous": false,
      "inputs": [
        {
          "indexed": false,
          "internalType": "uint256",
          "name": "amountETH",
          "type": "uint256"
        },
        {
          "indexed": false,
          "internalType": "uint256",
          "name": "amountBOG",
          "type": "uint256"
        }
      ],
      "name": "AutoLiquify",
      "type": "event"
    },
    {
      "anonymous": false,
      "inputs": [
        {
          "indexed": false,
          "internalType": "uint256",
          "name": "duration",
          "type": "uint256"
        }
      ],
      "name": "BuybackMultiplierActive",
      "type": "event"
    },
    {
      "anonymous": false,
      "inputs": [
        {
          "indexed": true,
          "internalType": "address",
          "name": "previousOwner",
          "type": "address"
        },
        {
          "indexed": true,
          "internalType": "address",
          "name": "newOwner",
          "type": "address"
        }
      ],
      "name": "OwnershipTransferred",
      "type": "event"
    },
    {
      "anonymous": false,
      "inputs": [
        {
          "indexed": true,
          "internalType": "address",
          "name": "owner",
          "type": "address"
        },
        {
          "indexed": true,
          "internalType": "address",
          "name": "token",
          "type": "address"
        },
        {
          "indexed": false,
          "internalType": "enum TokenType",
          "name": "tokenType",
          "type": "uint8"
        },
        {
          "indexed": false,
          "internalType": "uint256",
          "name": "version",
          "type": "uint256"
        }
      ],
      "name": "TokenCreated",
      "type": "event"
    },
    {
      "anonymous": false,
      "inputs": [
        {
          "indexed": true,
          "internalType": "address",
          "name": "from",
          "type": "address"
        },
        {
          "indexed": true,
          "internalType": "address",
          "name": "to",
          "type": "address"
        },
        {
          "indexed": false,
          "internalType": "uint256",
          "name": "value",
          "type": "uint256"
        }
      ],
      "name": "Transfer",
      "type": "event"
    },
    {
      "inputs": [],
      "name": "VERSION",
      "outputs": [
        {
          "internalType": "uint256",
          "name": "",
          "type": "uint256"
        }
      ],
      "stateMutability": "view",
      "type": "function"
    },
    {
      "inputs": [
        {
          "internalType": "address",
          "name": "holder",
          "type": "address"
        },
        {
          "internalType": "address",
          "name": "spender",
          "type": "address"
        }
      ],
      "name": "allowance",
      "outputs": [
        {
          "internalType": "uint256",
          "name": "",
          "type": "uint256"
        }
      ],
      "stateMutability": "view",
      "type": "function"
    },
    {
      "inputs": [
        {
          "internalType": "address",
          "name": "spender",
          "type": "address"
        },
        {
          "internalType": "uint256",
          "name": "amount",
          "type": "uint256"
        }
      ],
      "name": "approve",
      "outputs": [
        {
          "internalType": "bool",
          "name": "",
          "type": "bool"
        }
      ],
      "stateMutability": "nonpayable",
      "type": "function"
    },
    {
      "inputs": [
        {
          "internalType": "address",
          "name": "spender",
          "type": "address"
        }
      ],
      "name": "approveMax",
      "outputs": [
        {
          "internalType": "bool",
          "name": "",
          "type": "bool"
        }
      ],
      "stateMutability": "nonpayable",
      "type": "function"
    },
    {
      "inputs": [],
      "name": "autoBuybackAccumulator",
      "outputs": [
        {
          "internalType": "uint256",
          "name": "",
          "type": "uint256"
        }
      ],
      "stateMutability": "view",
      "type": "function"
    },
    {
      "inputs": [],
      "name": "autoBuybackAmount",
      "outputs": [
        {
          "internalType": "uint256",
          "name": "",
          "type": "uint256"
        }
      ],
      "stateMutability": "view",
      "type": "function"
    },
    {
      "inputs": [],
      "name": "autoBuybackBlockLast",
      "outputs": [
        {
          "internalType": "uint256",
          "name": "",
          "type": "uint256"
        }
      ],
      "stateMutability": "view",
      "type": "function"
    },
    {
      "inputs": [],
      "name": "autoBuybackBlockPeriod",
      "outputs": [
        {
          "internalType": "uint256",
          "name": "",
          "type": "uint256"
        }
      ],
      "stateMutability": "view",
      "type": "function"
    },
    {
      "inputs": [],
      "name": "autoBuybackCap",
      "outputs": [
        {
          "internalType": "uint256",
          "name": "",
          "type": "uint256"
        }
      ],
      "stateMutability": "view",
      "type": "function"
    },
    {
      "inputs": [],
      "name": "autoBuybackEnabled",
      "outputs": [
        {
          "internalType": "bool",
          "name": "",
          "type": "bool"
        }
      ],
      "stateMutability": "view",
      "type": "function"
    },
    {
      "inputs": [
        {
          "internalType": "address",
          "name": "account",
          "type": "address"
        }
      ],
      "name": "balanceOf",
      "outputs": [
        {
          "internalType": "uint256",
          "name": "",
          "type": "uint256"
        }
      ],
      "stateMutability": "view",
      "type": "function"
    },
    {
      "inputs": [],
      "name": "buybackFee",
      "outputs": [
        {
          "internalType": "uint256",
          "name": "",
          "type": "uint256"
        }
      ],
      "stateMutability": "view",
      "type": "function"
    },
    {
      "inputs": [],
      "name": "buybackMultiplierDenominator",
      "outputs": [
        {
          "internalType": "uint256",
          "name": "",
          "type": "uint256"
        }
      ],
      "stateMutability": "view",
      "type": "function"
    },
    {
      "inputs": [],
      "name": "buybackMultiplierLength",
      "outputs": [
        {
          "internalType": "uint256",
          "name": "",
          "type": "uint256"
        }
      ],
      "stateMutability": "view",
      "type": "function"
    },
    {
      "inputs": [],
      "name": "buybackMultiplierNumerator",
      "outputs": [
        {
          "internalType": "uint256",
          "name": "",
          "type": "uint256"
        }
      ],
      "stateMutability": "view",
      "type": "function"
    },
    {
      "inputs": [],
      "name": "buybackMultiplierTriggeredAt",
      "outputs": [
        {
          "internalType": "uint256",
          "name": "",
          "type": "uint256"
        }
      ],
      "stateMutability": "view",
      "type": "function"
    },
    {
      "inputs": [],
      "name": "clearBuybackMultiplier",
      "outputs": [],
      "stateMutability": "nonpayable",
      "type": "function"
    },
    {
      "inputs": [],
      "name": "decimals",
      "outputs": [
        {
          "internalType": "uint8",
          "name": "",
          "type": "uint8"
        }
      ],
      "stateMutability": "pure",
      "type": "function"
    },
    {
      "inputs": [],
      "name": "distributor",
      "outputs": [
        {
          "internalType": "contract DividendDistributor",
          "name": "",
          "type": "address"
        }
      ],
      "stateMutability": "view",
      "type": "function"
    },
    {
      "inputs": [],
      "name": "distributorGas",
      "outputs": [
        {
          "internalType": "uint256",
          "name": "",
          "type": "uint256"
        }
      ],
      "stateMutability": "view",
      "type": "function"
    },
    {
      "inputs": [],
      "name": "feeDenominator",
      "outputs": [
        {
          "internalType": "uint256",
          "name": "",
          "type": "uint256"
        }
      ],
      "stateMutability": "view",
      "type": "function"
    },
    {
      "inputs": [],
      "name": "getCirculatingSupply",
      "outputs": [
        {
          "internalType": "uint256",
          "name": "",
          "type": "uint256"
        }
      ],
      "stateMutability": "view",
      "type": "function"
    },
    {
      "inputs": [
        {
          "internalType": "uint256",
          "name": "accuracy",
          "type": "uint256"
        }
      ],
      "name": "getLiquidityBacking",
      "outputs": [
        {
          "internalType": "uint256",
          "name": "",
          "type": "uint256"
        }
      ],
      "stateMutability": "view",
      "type": "function"
    },
    {
      "inputs": [],
      "name": "getMultipliedFee",
      "outputs": [
        {
          "internalType": "uint256",
          "name": "",
          "type": "uint256"
        }
      ],
      "stateMutability": "view",
      "type": "function"
    },
    {
      "inputs": [
        {
          "internalType": "bool",
          "name": "selling",
          "type": "bool"
        }
      ],
      "name": "getTotalFee",
      "outputs": [
        {
          "internalType": "uint256",
          "name": "",
          "type": "uint256"
        }
      ],
      "stateMutability": "view",
      "type": "function"
    },
    {
      "inputs": [
        {
          "internalType": "address",
          "name": "",
          "type": "address"
        }
      ],
      "name": "isDividendExempt",
      "outputs": [
        {
          "internalType": "bool",
          "name": "",
          "type": "bool"
        }
      ],
      "stateMutability": "view",
      "type": "function"
    },
    {
      "inputs": [
        {
          "internalType": "address",
          "name": "",
          "type": "address"
        }
      ],
      "name": "isFeeExempt",
      "outputs": [
        {
          "internalType": "bool",
          "name": "",
          "type": "bool"
        }
      ],
      "stateMutability": "view",
      "type": "function"
    },
    {
      "inputs": [
        {
          "internalType": "uint256",
          "name": "target",
          "type": "uint256"
        },
        {
          "internalType": "uint256",
          "name": "accuracy",
          "type": "uint256"
        }
      ],
      "name": "isOverLiquified",
      "outputs": [
        {
          "internalType": "bool",
          "name": "",
          "type": "bool"
        }
      ],
      "stateMutability": "view",
      "type": "function"
    },
    {
      "inputs": [],
      "name": "liquidityFee",
      "outputs": [
        {
          "internalType": "uint256",
          "name": "",
          "type": "uint256"
        }
      ],
      "stateMutability": "view",
      "type": "function"
    },
    {
      "inputs": [],
      "name": "marketingFee",
      "outputs": [
        {
          "internalType": "uint256",
          "name": "",
          "type": "uint256"
        }
      ],
      "stateMutability": "view",
      "type": "function"
    },
    {
      "inputs": [],
      "name": "marketingFeeReceiver",
      "outputs": [
        {
          "internalType": "address",
          "name": "",
          "type": "address"
        }
      ],
      "stateMutability": "view",
      "type": "function"
    },
    {
      "inputs": [],
      "name": "name",
      "outputs": [
        {
          "internalType": "string",
          "name": "",
          "type": "string"
        }
      ],
      "stateMutability": "view",
      "type": "function"
    },
    {
      "inputs": [],
      "name": "owner",
      "outputs": [
        {
          "internalType": "address",
          "name": "",
          "type": "address"
        }
      ],
      "stateMutability": "view",
      "type": "function"
    },
    {
      "inputs": [],
      "name": "pair",
      "outputs": [
        {
          "internalType": "address",
          "name": "",
          "type": "address"
        }
      ],
      "stateMutability": "view",
      "type": "function"
    },
    {
      "inputs": [],
      "name": "reflectionFee",
      "outputs": [
        {
          "internalType": "uint256",
          "name": "",
          "type": "uint256"
        }
      ],
      "stateMutability": "view",
      "type": "function"
    },
    {
      "inputs": [],
      "name": "renounceOwnership",
      "outputs": [],
      "stateMutability": "nonpayable",
      "type": "function"
    },
    {
      "inputs": [],
      "name": "rewardToken",
      "outputs": [
        {
          "internalType": "address",
          "name": "",
          "type": "address"
        }
      ],
      "stateMutability": "view",
      "type": "function"
    },
    {
      "inputs": [],
      "name": "router",
      "outputs": [
        {
          "internalType": "contract IUniswapV2Router02",
          "name": "",
          "type": "address"
        }
      ],
      "stateMutability": "view",
      "type": "function"
    },
    {
      "inputs": [
        {
          "internalType": "bool",
          "name": "_enabled",
          "type": "bool"
        },
        {
          "internalType": "uint256",
          "name": "_cap",
          "type": "uint256"
        },
        {
          "internalType": "uint256",
          "name": "_amount",
          "type": "uint256"
        },
        {
          "internalType": "uint256",
          "name": "_period",
          "type": "uint256"
        }
      ],
      "name": "setAutoBuybackSettings",
      "outputs": [],
      "stateMutability": "nonpayable",
      "type": "function"
    },
    {
      "inputs": [
        {
          "internalType": "uint256",
          "name": "numerator",
          "type": "uint256"
        },
        {
          "internalType": "uint256",
          "name": "denominator",
          "type": "uint256"
        },
        {
          "internalType": "uint256",
          "name": "length",
          "type": "uint256"
        }
      ],
      "name": "setBuybackMultiplierSettings",
      "outputs": [],
      "stateMutability": "nonpayable",
      "type": "function"
    },
    {
      "inputs": [
        {
          "internalType": "uint256",
          "name": "_minPeriod",
          "type": "uint256"
        },
        {
          "internalType": "uint256",
          "name": "_minDistribution",
          "type": "uint256"
        }
      ],
      "name": "setDistributionCriteria",
      "outputs": [],
      "stateMutability": "nonpayable",
      "type": "function"
    },
    {
      "inputs": [
        {
          "internalType": "uint256",
          "name": "gas",
          "type": "uint256"
        }
      ],
      "name": "setDistributorSettings",
      "outputs": [],
      "stateMutability": "nonpayable",
      "type": "function"
    },
    {
      "inputs": [
        {
          "internalType": "address",
          "name": "_marketingFeeReceiver",
          "type": "address"
        }
      ],
      "name": "setFeeReceivers",
      "outputs": [],
      "stateMutability": "nonpayable",
      "type": "function"
    },
    {
      "inputs": [
        {
          "internalType": "uint256",
          "name": "_liquidityFee",
          "type": "uint256"
        },
        {
          "internalType": "uint256",
          "name": "_buybackFee",
          "type": "uint256"
        },
        {
          "internalType": "uint256",
          "name": "_reflectionFee",
          "type": "uint256"
        },
        {
          "internalType": "uint256",
          "name": "_marketingFee",
          "type": "uint256"
        },
        {
          "internalType": "uint256",
          "name": "_feeDenominator",
          "type": "uint256"
        }
      ],
      "name": "setFees",
      "outputs": [],
      "stateMutability": "nonpayable",
      "type": "function"
    },
    {
      "inputs": [
        {
          "internalType": "address",
          "name": "holder",
          "type": "address"
        },
        {
          "internalType": "bool",
          "name": "exempt",
          "type": "bool"
        }
      ],
      "name": "setIsDividendExempt",
      "outputs": [],
      "stateMutability": "nonpayable",
      "type": "function"
    },
    {
      "inputs": [
        {
          "internalType": "address",
          "name": "holder",
          "type": "address"
        }
      ],
      "name": "setIsFeeExempt",
      "outputs": [],
      "stateMutability": "nonpayable",
      "type": "function"
    },
    {
      "inputs": [
        {
          "internalType": "bool",
          "name": "_enabled",
          "type": "bool"
        },
        {
          "internalType": "uint256",
          "name": "_amount",
          "type": "uint256"
        }
      ],
      "name": "setSwapBackSettings",
      "outputs": [],
      "stateMutability": "nonpayable",
      "type": "function"
    },
    {
      "inputs": [
        {
          "internalType": "uint256",
          "name": "_target",
          "type": "uint256"
        },
        {
          "internalType": "uint256",
          "name": "_denominator",
          "type": "uint256"
        }
      ],
      "name": "setTargetLiquidity",
      "outputs": [],
      "stateMutability": "nonpayable",
      "type": "function"
    },
    {
      "inputs": [],
      "name": "swapEnabled",
      "outputs": [
        {
          "internalType": "bool",
          "name": "",
          "type": "bool"
        }
      ],
      "stateMutability": "view",
      "type": "function"
    },
    {
      "inputs": [],
      "name": "swapThreshold",
      "outputs": [
        {
          "internalType": "uint256",
          "name": "",
          "type": "uint256"
        }
      ],
      "stateMutability": "view",
      "type": "function"
    },
    {
      "inputs": [],
      "name": "symbol",
      "outputs": [
        {
          "internalType": "string",
          "name": "",
          "type": "string"
        }
      ],
      "stateMutability": "view",
      "type": "function"
    },
    {
      "inputs": [],
      "name": "targetLiquidity",
      "outputs": [
        {
          "internalType": "uint256",
          "name": "",
          "type": "uint256"
        }
      ],
      "stateMutability": "view",
      "type": "function"
    },
    {
      "inputs": [],
      "name": "targetLiquidityDenominator",
      "outputs": [
        {
          "internalType": "uint256",
          "name": "",
          "type": "uint256"
        }
      ],
      "stateMutability": "view",
      "type": "function"
    },
    {
      "inputs": [],
      "name": "totalFee",
      "outputs": [
        {
          "internalType": "uint256",
          "name": "",
          "type": "uint256"
        }
      ],
      "stateMutability": "view",
      "type": "function"
    },
    {
      "inputs": [],
      "name": "totalSupply",
      "outputs": [
        {
          "internalType": "uint256",
          "name": "",
          "type": "uint256"
        }
      ],
      "stateMutability": "view",
      "type": "function"
    },
    {
      "inputs": [
        {
          "internalType": "address",
          "name": "recipient",
          "type": "address"
        },
        {
          "internalType": "uint256",
          "name": "amount",
          "type": "uint256"
        }
      ],
      "name": "transfer",
      "outputs": [
        {
          "internalType": "bool",
          "name": "",
          "type": "bool"
        }
      ],
      "stateMutability": "nonpayable",
      "type": "function"
    },
    {
      "inputs": [
        {
          "internalType": "address",
          "name": "sender",
          "type": "address"
        },
        {
          "internalType": "address",
          "name": "recipient",
          "type": "address"
        },
        {
          "internalType": "uint256",
          "name": "amount",
          "type": "uint256"
        }
      ],
      "name": "transferFrom",
      "outputs": [
        {
          "internalType": "bool",
          "name": "",
          "type": "bool"
        }
      ],
      "stateMutability": "nonpayable",
      "type": "function"
    },
    {
      "inputs": [
        {
          "internalType": "address",
          "name": "newOwner",
          "type": "address"
        }
      ],
      "name": "transferOwnership",
      "outputs": [],
      "stateMutability": "nonpayable",
      "type": "function"
    },
    {
      "inputs": [
        {
          "internalType": "uint256",
          "name": "amount",
          "type": "uint256"
        },
        {
          "internalType": "bool",
          "name": "triggerBuybackMultiplier",
          "type": "bool"
        }
      ],
      "name": "triggerZeusBuyback",
      "outputs": [],
      "stateMutability": "nonpayable",
      "type": "function"
    },
    {
      "stateMutability": "payable",
      "type": "receive"
    }
  ],
  "bytecode": "0x6080604052604051620043c5380380620043c583398101604081905262000026916200072d565b6200003133620004af565b60016200003f8982620008c7565b5060026200004e8882620008c7565b506003869055600480546001600160a01b038088166001600160a01b0319928316178355600580549188169190921681179091556040805163c45a015560e01b81529051919263c45a01559282820192602092908290030181865afa158015620000bc573d6000803e3d6000fd5b505050506040513d601f19601f82011682018060405250810190620000e2919062000993565b6001600160a01b031663c9c6539630600560009054906101000a90046001600160a01b03166001600160a01b031663ad5c46486040518163ffffffff1660e01b8152600401602060405180830381865afa15801562000145573d6000803e3d6000fd5b505050506040513d601f19601f820116820180604052508101906200016b919062000993565b6040516001600160e01b031960e085901b1681526001600160a01b039283166004820152911660248201526044016020604051808303816000875af1158015620001b9573d6000803e3d6000fd5b505050506040513d601f19601f82011682018060405250810190620001df919062000993565b600660006101000a8154816001600160a01b0302191690836001600160a01b031602179055508484604051620002159062000601565b6001600160a01b03928316815291166020820152604001604051809103906000f08015801562000249573d6000803e3d6000fd5b50601a80546001600160a01b0319166001600160a01b03929092169190911790556200027583620004ff565b620002956019600e556064600f81905560c8601055601155610708601355565b6207a120601b55601c805460ff19166001179055600354620002bb906103e890620009b1565b601d55336000818152602080805260408083208054600160ff1991821681179092556006546001600160a01b0316855260219093528184208054841682179055308452908320805483168217905561dead9092527fda90364631e387f138e7e413f1de75a8ecb4767574209ddf012729113dea45c080549091169091179055600780546001600160a01b031916821790553b15620003ae5760405162461bcd60e51b815260206004820152602560248201527f4d61726b6574696e672077616c6c65742063616e6e6f74206265206120636f6e6044820152641d1c9858dd60da1b60648201526084015b60405180910390fd5b600354306000908152601f602090815260408083206005546001600160a01b03908116855290835281842085905560065416835280832084905533808452601e83528184208590559051938452927fddf252ad1be2c89b69c2b068fc378daa952ba7f163c4a11628f55a4df523b3ef910160405180910390a3604051309033907f56358b41df5fa59f5639228f0930994cbdde383c8a8fd74e06c04e1deebe3562906200046190600690600390620009d4565b60405180910390a36040516001600160a01b0383169082156108fc029083906000818181858888f19350505050158015620004a0573d6000803e3d6000fd5b50505050505050505062000a23565b600080546001600160a01b038381166001600160a01b0319831681178455604051919092169283917f8be0079c531659141344cd1fd0a4f28419497f9722a3daafe3b4186f6b6457e09190a35050565b8051602082015160408301516060840151608085015162000524949392919062000527565b50565b60088590556009849055600a839055600b82905562000555826200054e85818989620005ea565b90620005ea565b600c55600d8190556200056a600482620009b1565b600c541115620005e35760405162461bcd60e51b815260206004820152603b60248201527f546f74616c206665652073686f756c64206e6f7420626520677265617465722060448201527f7468616e20312f34206f66206665652064656e6f6d696e61746f7200000000006064820152608401620003a5565b5050505050565b6000620005f8828462000a01565b90505b92915050565b6114108062002fb583390190565b634e487b7160e01b600052604160045260246000fd5b60405160a081016001600160401b03811182821017156200064a576200064a6200060f565b60405290565b604051601f8201601f191681016001600160401b03811182821017156200067b576200067b6200060f565b604052919050565b600082601f8301126200069557600080fd5b81516001600160401b03811115620006b157620006b16200060f565b6020620006c7601f8301601f1916820162000650565b8281528582848701011115620006dc57600080fd5b60005b83811015620006fc578581018301518282018401528201620006df565b506000928101909101919091529392505050565b80516001600160a01b03811681146200072857600080fd5b919050565b600080600080600080600080610180898b0312156200074b57600080fd5b88516001600160401b03808211156200076357600080fd5b620007718c838d0162000683565b995060209150818b0151818111156200078957600080fd5b620007978d828e0162000683565b9950505060408a01519650620007b060608b0162000710565b9550620007c060808b0162000710565b94508a60bf8b0112620007d257600080fd5b620007dc62000625565b806101408c018d811115620007f057600080fd5b60a08d015b818110156200080e5780518452928401928401620007f5565b508196506200081d8162000710565b95505050505061016089015190509295985092959890939650565b600181811c908216806200084d57607f821691505b6020821081036200086e57634e487b7160e01b600052602260045260246000fd5b50919050565b601f821115620008c257600081815260208120601f850160051c810160208610156200089d5750805b601f850160051c820191505b81811015620008be57828155600101620008a9565b5050505b505050565b81516001600160401b03811115620008e357620008e36200060f565b620008fb81620008f4845462000838565b8462000874565b602080601f8311600181146200093357600084156200091a5750858301515b600019600386901b1c1916600185901b178555620008be565b600085815260208120601f198616915b82811015620009645788860151825594840194600190910190840162000943565b5085821015620009835787850151600019600388901b60f8161c191681555b5050505050600190811b01905550565b600060208284031215620009a657600080fd5b620005f88262000710565b600082620009cf57634e487b7160e01b600052601260045260246000fd5b500490565b6040810160088410620009f757634e487b7160e01b600052602160045260246000fd5b9281526020015290565b80820180821115620005fb57634e487b7160e01b600052601160045260246000fd5b6125828062000a336000396000f3fe6080604052600436106103905760003560e01c806370a08231116101dc578063bfe1092811610102578063ecbf666f116100a0578063f708a64f1161006f578063f708a64f14610a00578063f7c618c114610a20578063f887ea4014610a40578063ffa1ad7414610a6057600080fd5b8063ecbf666f1461098a578063f1f3bca3146109a0578063f2fde38b146109c0578063f5cfec0a146109e057600080fd5b8063dd62ed3e116100dc578063dd62ed3e146108e4578063df20fd491461092a578063e01bb6881461094a578063e96fada21461096a57600080fd5b8063bfe109281461088f578063d51ed1c8146108af578063d806d12f146108cf57600080fd5b806392258ec81161017a578063a8aa1b3111610149578063a8aa1b3114610824578063a9059cbb14610844578063b210b06d14610864578063b91854f41461087957600080fd5b806392258ec8146107c357806395d89b41146107d957806398118cb4146107ee5780639d1944f51461080457600080fd5b806387406b33116101b657806387406b33146107455780638ab6ffc7146107655780638da5cb5b1461077b578063921250d1146107ad57600080fd5b806370a08231146106e4578063715018a61461071a57806383ad79941461072f57600080fd5b80632b112e49116102c15780634896a6321161025f57806360e719621161022e57806360e71962146106885780636b67c4df1461069e5780636ddd1713146106b45780636e78eb49146106ce57600080fd5b80634896a63214610626578063571ac8b01461063c578063591cf08d1461065c5780635a53c1fb1461067257600080fd5b80633b2d081c1161029b5780633b2d081c146105975780633bb8a8d4146105ad5780633f4218e0146105c75780634355855a146105f657600080fd5b80632b112e49146105465780632d48e8961461055b578063313ce5671461057b57600080fd5b8063180b0d7e1161032e5780631df4ccfc116103085780631df4ccfc146104d0578063201e7991146104e65780632375ce401461050657806323b872dd1461052657600080fd5b8063180b0d7e1461048f57806318160ddd146104a557806319be947b146104ba57600080fd5b806306fdde031161036a57806306fdde0314610407578063095ea7b3146104295780631023d5d4146104595780631161ae391461046f57600080fd5b80630445b6671461039c578063048c7baf146103c557806304a66b48146103e757600080fd5b3661039757005b600080fd5b3480156103a857600080fd5b506103b2601d5481565b6040519081526020015b60405180910390f35b3480156103d157600080fd5b506103e56103e03660046120f7565b610a75565b005b3480156103f357600080fd5b506103e5610402366004612130565b610afb565b34801561041357600080fd5b5061041c610b17565b6040516103bc919061216b565b34801561043557600080fd5b506104496104443660046121ce565b610ba9565b60405190151581526020016103bc565b34801561046557600080fd5b506103b260135481565b34801561047b57600080fd5b5061044961048a3660046121fa565b610c16565b34801561049b57600080fd5b506103b2600d5481565b3480156104b157600080fd5b506003546103b2565b3480156104c657600080fd5b506103b260125481565b3480156104dc57600080fd5b506103b2600c5481565b3480156104f257600080fd5b506103e56105013660046121fa565b610c2a565b34801561051257600080fd5b506103e561052136600461221c565b610c98565b34801561053257600080fd5b50610449610541366004612248565b610d22565b34801561055257600080fd5b506103b2610de6565b34801561056757600080fd5b506103e56105763660046121fa565b610e57565b34801561058757600080fd5b50604051600981526020016103bc565b3480156105a357600080fd5b506103b260095481565b3480156105b957600080fd5b506014546104499060ff1681565b3480156105d357600080fd5b506104496105e2366004612289565b602080526000908152604090205460ff1681565b34801561060257600080fd5b50610449610611366004612289565b60216020526000908152604090205460ff1681565b34801561063257600080fd5b506103b260175481565b34801561064857600080fd5b50610449610657366004612289565b610ec9565b34801561066857600080fd5b506103b260155481565b34801561067e57600080fd5b506103b260185481565b34801561069457600080fd5b506103b2601b5481565b3480156106aa57600080fd5b506103b2600b5481565b3480156106c057600080fd5b50601c546104499060ff1681565b3480156106da57600080fd5b506103b260165481565b3480156106f057600080fd5b506103b26106ff366004612289565b6001600160a01b03166000908152601e602052604090205490565b34801561072657600080fd5b506103e5610ed7565b34801561073b57600080fd5b506103b2600a5481565b34801561075157600080fd5b506103e5610760366004612289565b610eeb565b34801561077157600080fd5b506103b2600f5481565b34801561078757600080fd5b506000546001600160a01b03165b6040516001600160a01b0390911681526020016103bc565b3480156107b957600080fd5b506103b260105481565b3480156107cf57600080fd5b506103b2600e5481565b3480156107e557600080fd5b5061041c610f16565b3480156107fa57600080fd5b506103b260085481565b34801561081057600080fd5b506103e561081f3660046122a6565b610f25565b34801561083057600080fd5b50600654610795906001600160a01b031681565b34801561085057600080fd5b5061044961085f3660046121ce565b610fb1565b34801561087057600080fd5b506103e5610fbe565b34801561088557600080fd5b506103b260195481565b34801561089b57600080fd5b50601a54610795906001600160a01b031681565b3480156108bb57600080fd5b506103b26108ca3660046122a6565b610fcd565b3480156108db57600080fd5b506103b2611011565b3480156108f057600080fd5b506103b26108ff3660046122bf565b6001600160a01b039182166000908152601f6020908152604080832093909416825291909152205490565b34801561093657600080fd5b506103e56109453660046122f8565b6110d9565b34801561095657600080fd5b506103e5610965366004612289565b611187565b34801561097657600080fd5b50600754610795906001600160a01b031681565b34801561099657600080fd5b506103b260115481565b3480156109ac57600080fd5b506103b26109bb366004612314565b611286565b3480156109cc57600080fd5b506103e56109db366004612289565b61129e565b3480156109ec57600080fd5b506103e56109fb36600461232f565b611317565b348015610a0c57600080fd5b506103e5610a1b36600461235b565b611370565b348015610a2c57600080fd5b50600454610795906001600160a01b031681565b348015610a4c57600080fd5b50600554610795906001600160a01b031681565b348015610a6c57600080fd5b506103b2600381565b610a7d611457565b60008111610ad25760405162461bcd60e51b815260206004820152601d60248201527f506572696f64206d7573742062652067726561746572207468616e203000000060448201526064015b60405180910390fd5b6014805460ff191694151594909417909355601591909155600060165560175560185543601955565b610b03611457565b610b1085858585856114b1565b5050505050565b606060018054610b2690612387565b80601f0160208091040260200160405190810160405280929190818152602001828054610b5290612387565b8015610b9f5780601f10610b7457610100808354040283529160200191610b9f565b820191906000526020600020905b815481529060010190602001808311610b8257829003601f168201915b5050505050905090565b336000818152601f602090815260408083206001600160a01b038716808552925280832085905551919290917f8c5be1e5ebec7d5bd14f71427d1e84f3dd0314c0f7b2291e5b200ac8c7c3b92590610c049086815260200190565b60405180910390a35060015b92915050565b600082610c2283610fcd565b119392505050565b610c32611457565b60008111610c8d5760405162461bcd60e51b815260206004820152602260248201527f44656e6f6d696e61746f72206d7573742062652067726561746572207468616e604482015261020360f41b6064820152608401610ac9565b600e91909155600f55565b610ca0611457565b611c20811115610cf25760405162461bcd60e51b815260206004820181905260248201527f4c656e677468206d757374206265206c657373207468616e203220686f7572736044820152606401610ac9565b6002610cfe83856123d7565b11158015610d0b57508183115b610d1457600080fd5b601092909255601155601355565b6003546001600160a01b0384166000908152601f60209081526040808320338452909152812054909114610dd1576040805180820182526016815275496e73756666696369656e7420416c6c6f77616e636560501b6020808301919091526001600160a01b0387166000908152601f82528381203382529091529190912054610dac918490611565565b6001600160a01b0385166000908152601f602090815260408083203384529091529020555b610ddc848484611591565b90505b9392505050565b601e6020527f65ce8396b736f5da9d881cc6fbcb11ef9721292dc41ec8c40879fd9edea5744d5461dead60009081527f8a622fd893f993f50f1795ae2bf707bdf4143f678ec4998626679a2f447616df546003549192610e52929091610e4c919061187e565b9061187e565b905090565b610e5f611457565b601a546040516316a4744b60e11b815260048101849052602481018390526001600160a01b0390911690632d48e896906044015b600060405180830381600087803b158015610ead57600080fd5b505af1158015610ec1573d6000803e3d6000fd5b505050505050565b6000610c1082600354610ba9565b610edf611457565b610ee9600061188a565b565b610ef3611457565b6001600160a01b031660009081526020805260409020805460ff19166001179055565b606060028054610b2690612387565b610f2d611457565b62030d408110158015610f4357506207a1208111155b610fac5760405162461bcd60e51b815260206004820152603460248201527f676173466f7250726f63657373696e67206d757374206265206265747765656e6044820152730203230302c30303020616e64203530302c3030360641b6064820152608401610ac9565b601b55565b6000610ddf338484611591565b610fc6611457565b6000601255565b6000610c10610fda610de6565b6006546001600160a01b03166000908152601e602052604090205461100b906110049060026118da565b85906118da565b906118e6565b60004261102b6013546012546118f290919063ffffffff16565b11156110d257600061104e42610e4c6013546012546118f290919063ffffffff16565b90506000611075600c54610e4c60115461100b601054600c546118da90919063ffffffff16565b9050600061109e61109560135461100b86866118da90919063ffffffff16565b600c54906118f2565b90506004600d546110af91906123d7565b81116110bb57806110ca565b6004600d546110ca91906123d7565b935050505090565b50600c5490565b6110e1611457565b8180156110fe5750620186a06003546110fa91906123d7565b8110155b6111705760405162461bcd60e51b815260206004820152603960248201527f537761706261636b20616d6f756e742073686f756c64206265206174206c656160448201527f737420302e30303125206f6620746f74616c20737570706c79000000000000006064820152608401610ac9565b601c805460ff191692151592909217909155601d55565b61118f611457565b6007546001600160a01b03908116908216036111fe5760405162461bcd60e51b815260206004820152602860248201527f4d61726b6574696e672077616c6c657420697320616c72656164792074686174604482015267206164647265737360c01b6064820152608401610ac9565b6001600160a01b0381163b156112645760405162461bcd60e51b815260206004820152602560248201527f4d61726b6574696e672077616c6c65742063616e6e6f74206265206120636f6e6044820152641d1c9858dd60da1b6064820152608401610ac9565b600780546001600160a01b0319166001600160a01b0392909216919091179055565b6000811561129657610c10611011565b5050600c5490565b6112a6611457565b6001600160a01b03811661130b5760405162461bcd60e51b815260206004820152602660248201527f4f776e61626c653a206e6577206f776e657220697320746865207a65726f206160448201526564647265737360d01b6064820152608401610ac9565b6113148161188a565b50565b61131f611457565b61132b8261dead6118fe565b801561136c57426012556013546040519081527f39d2389ec5c1fa77b2c0d374bc61b6d7bd97ccba280fcdeb4e9c7644898d7c3a9060200160405180910390a15b5050565b611378611457565b6001600160a01b038216301480159061139f57506006546001600160a01b03838116911614155b6113a857600080fd5b6001600160a01b0382166000908152602160205260409020805460ff1916821580159190911790915561140e57601a54604051630a5b654b60e11b81526001600160a01b03848116600483015260006024830152909116906314b6ca9690604401610e93565b601a546001600160a01b038381166000818152601e602052604090819020549051630a5b654b60e11b8152600481019290925260248201529116906314b6ca9690604401610e93565b6000546001600160a01b03163314610ee95760405162461bcd60e51b815260206004820181905260248201527f4f776e61626c653a2063616c6c6572206973206e6f7420746865206f776e65726044820152606401610ac9565b60088590556009849055600a839055600b8290556114db826114d5858189896118f2565b906118f2565b600c55600d8190556114ee6004826123d7565b600c541115610b105760405162461bcd60e51b815260206004820152603b60248201527f546f74616c206665652073686f756c64206e6f7420626520677265617465722060448201527f7468616e20312f34206f66206665652064656e6f6d696e61746f7200000000006064820152608401610ac9565b600081848411156115895760405162461bcd60e51b8152600401610ac9919061216b565b505050900390565b60225460009060ff16156115b1576115aa848484611a67565b9050610ddf565b6115b9611b4d565b156115c6576115c6611b9c565b6115ce611f62565b156115db576115db611fbd565b6040805180820182526014815273496e73756666696369656e742042616c616e636560601b6020808301919091526001600160a01b0387166000908152601e909152919091205461162d918490611565565b6001600160a01b0385166000908152601e602052604081209190915561165285611ff8565b61165c5782611667565b611667858585612027565b6001600160a01b0385166000908152601e602052604090205490915061168d90826118f2565b6001600160a01b038086166000908152601e602090815260408083209490945591881681526021909152205460ff1661173157601a546001600160a01b038681166000818152601e602052604090819020549051630a5b654b60e11b8152600481019290925260248201529116906314b6ca9690604401600060405180830381600087803b15801561171e57600080fd5b505af192505050801561172f575060015b505b6001600160a01b03841660009081526021602052604090205460ff166117c257601a546001600160a01b038581166000818152601e602052604090819020549051630a5b654b60e11b8152600481019290925260248201529116906314b6ca9690604401600060405180830381600087803b1580156117af57600080fd5b505af19250505080156117c0575060015b505b601a54601b546040516001624d3b8760e01b031981526001600160a01b039092169163ffb2c479916117fa9160040190815260200190565b600060405180830381600087803b15801561181457600080fd5b505af1925050508015611825575060015b50836001600160a01b0316856001600160a01b03167fddf252ad1be2c89b69c2b068fc378daa952ba7f163c4a11628f55a4df523b3ef8360405161186b91815260200190565b60405180910390a3506001949350505050565b6000610ddf82846123f9565b600080546001600160a01b038381166001600160a01b0319831681178455604051919092169283917f8be0079c531659141344cd1fd0a4f28419497f9722a3daafe3b4186f6b6457e09190a35050565b6000610ddf828461240c565b6000610ddf82846123d7565b6000610ddf8284612423565b6022805460ff191660011790556040805160028082526060820183526000926020830190803683375050600554604080516315ab88c960e31b815290519394506001600160a01b039091169263ad5c4648925060048083019260209291908290030181865afa158015611975573d6000803e3d6000fd5b505050506040513d601f19601f820116820180604052508101906119999190612436565b816000815181106119ac576119ac612453565b60200260200101906001600160a01b031690816001600160a01b03168152505030816001815181106119e0576119e0612453565b6001600160a01b03928316602091820292909201015260055460405163b6f9de9560e01b815291169063b6f9de95908590611a26906000908690889042906004016124ad565b6000604051808303818588803b158015611a3f57600080fd5b505af1158015611a53573d6000803e3d6000fd5b50506022805460ff19169055505050505050565b6040805180820182526014815273496e73756666696369656e742042616c616e636560601b6020808301919091526001600160a01b0386166000908152601e90915291822054611ab8918490611565565b6001600160a01b038086166000908152601e60205260408082209390935590851681522054611ae790836118f2565b6001600160a01b038085166000818152601e602052604090819020939093559151908616907fddf252ad1be2c89b69c2b068fc378daa952ba7f163c4a11628f55a4df523b3ef90611b3b9086815260200190565b60405180910390a35060019392505050565b6006546000906001600160a01b03163314801590611b6e575060225460ff16155b8015611b7c5750601c5460ff165b8015610e52575050601d54306000908152601e6020526040902054101590565b6022805460ff19166001179055600e54600f54600091611bbb91610c16565b611bc757600854611bca565b60005b9050600080600c541115611bfb57611bf8600261100b600c5461100b86601d546118da90919063ffffffff16565b90505b601d54600090611c0b908361187e565b60408051600280825260608201835292935060009290916020830190803683370190505090503081600081518110611c4557611c45612453565b6001600160a01b03928316602091820292909201810191909152600554604080516315ab88c960e31b81529051919093169263ad5c46489260048083019391928290030181865afa158015611c9e573d6000803e3d6000fd5b505050506040513d601f19601f82011682018060405250810190611cc29190612436565b81600181518110611cd557611cd5612453565b6001600160a01b03928316602091820292909201015260055460405163791ac94760e01b81524792919091169063791ac94790611d1f9086906000908790309042906004016124e2565b600060405180830381600087803b158015611d3957600080fd5b505af1158015611d4d573d6000803e3d6000fd5b505050506000611d66824761187e90919063ffffffff16565b90506000611d81611d788860026118e6565b600c549061187e565b905060008115611e7957611d9c600261100b8481878d6118da565b90506000611db98361100b600a54876118da90919063ffffffff16565b90506000611dd68461100b600b54886118da90919063ffffffff16565b9050601a60009054906101000a90046001600160a01b03166001600160a01b031663d0e30db0836040518263ffffffff1660e01b81526004016000604051808303818588803b158015611e2857600080fd5b505af193505050508015611e3a575060015b506007546040516001600160a01b039091169082156108fc029083906000818181858888f19350505050158015611e75573d6000803e3d6000fd5b5050505b8615611a535760055460405163f305d71960e01b815230600482015260248101899052600060448201819052606482015261dead60848201524260a48201526001600160a01b039091169063f305d71990839060c40160606040518083038185885af1158015611eed573d6000803e3d6000fd5b50505050506040513d601f19601f82011682018060405250810190611f12919061251e565b505060408051838152602081018a90527f424db2872186fa7e7afa7a5e902ed3b49a2ef19c2f5431e672462495dd6b450692500160405180910390a150506022805460ff19169055505050505050565b6006546000906001600160a01b03163314801590611f83575060225460ff16155b8015611f91575060145460ff165b8015611fac575043601854601954611fa99190612423565b11155b8015610e5257505060175447101590565b611fcb60175461dead6118fe565b43601955601754601654611fde916118f2565b60168190556015541015610ee9576014805460ff19169055565b6001600160a01b038116600090815260208052604081205460ff16158015610c1057506000600c541192915050565b600d546006546000918291612059919061100b90612052906001600160a01b03898116911614611286565b86906118da565b306000908152601e602052604090205490915061207690826118f2565b306000818152601e6020526040908190209290925590516001600160a01b038716907fddf252ad1be2c89b69c2b068fc378daa952ba7f163c4a11628f55a4df523b3ef906120c79085815260200190565b60405180910390a36120d9838261187e565b95945050505050565b803580151581146120f257600080fd5b919050565b6000806000806080858703121561210d57600080fd5b612116856120e2565b966020860135965060408601359560600135945092505050565b600080600080600060a0868803121561214857600080fd5b505083359560208501359550604085013594606081013594506080013592509050565b600060208083528351808285015260005b818110156121985785810183015185820160400152820161217c565b506000604082860101526040601f19601f8301168501019250505092915050565b6001600160a01b038116811461131457600080fd5b600080604083850312156121e157600080fd5b82356121ec816121b9565b946020939093013593505050565b6000806040838503121561220d57600080fd5b50508035926020909101359150565b60008060006060848603121561223157600080fd5b505081359360208301359350604090920135919050565b60008060006060848603121561225d57600080fd5b8335612268816121b9565b92506020840135612278816121b9565b929592945050506040919091013590565b60006020828403121561229b57600080fd5b8135610ddf816121b9565b6000602082840312156122b857600080fd5b5035919050565b600080604083850312156122d257600080fd5b82356122dd816121b9565b915060208301356122ed816121b9565b809150509250929050565b6000806040838503121561230b57600080fd5b6121ec836120e2565b60006020828403121561232657600080fd5b610ddf826120e2565b6000806040838503121561234257600080fd5b82359150612352602084016120e2565b90509250929050565b6000806040838503121561236e57600080fd5b8235612379816121b9565b9150612352602084016120e2565b600181811c9082168061239b57607f821691505b6020821081036123bb57634e487b7160e01b600052602260045260246000fd5b50919050565b634e487b7160e01b600052601160045260246000fd5b6000826123f457634e487b7160e01b600052601260045260246000fd5b500490565b81810381811115610c1057610c106123c1565b8082028115828204841417610c1057610c106123c1565b80820180821115610c1057610c106123c1565b60006020828403121561244857600080fd5b8151610ddf816121b9565b634e487b7160e01b600052603260045260246000fd5b600081518084526020808501945080840160005b838110156124a25781516001600160a01b03168752958201959082019060010161247d565b509495945050505050565b8481526080602082015260006124c66080830186612469565b6001600160a01b03949094166040830152506060015292915050565b85815284602082015260a06040820152600061250160a0830186612469565b6001600160a01b0394909416606083015250608001529392505050565b60008060006060848603121561253357600080fd5b835192506020840151915060408401519050925092509256fea26469706673582212208aec8eecbed6415ecd5fc1a54b1acc66b7023ce2c4b1da262f70ea537345e8d564736f6c6343000813003360806040523480156200001157600080fd5b50604051620014103803806200141083398101604081905262000034916200012f565b60008054336001600160a01b0319918216179091556001805482166001600160a01b0385811691821790925560028054909316918416919091179091556ec097ce7bc90715b34b9f1000000000600b55610e10600c556040805163313ce56760e01b8152905163313ce567916004808201926020929091908290030181865afa158015620000c6573d6000803e3d6000fd5b505050506040513d601f19601f82011682018060405250810190620000ec919062000167565b620000f990600a620002a8565b62000106906001620002b9565b600d5550620002d39050565b80516001600160a01b03811681146200012a57600080fd5b919050565b600080604083850312156200014357600080fd5b6200014e8362000112565b91506200015e6020840162000112565b90509250929050565b6000602082840312156200017a57600080fd5b815160ff811681146200018c57600080fd5b9392505050565b634e487b7160e01b600052601160045260246000fd5b600181815b80851115620001ea578160001904821115620001ce57620001ce62000193565b80851615620001dc57918102915b93841c9390800290620001ae565b509250929050565b6000826200020357506001620002a2565b816200021257506000620002a2565b81600181146200022b5760028114620002365762000256565b6001915050620002a2565b60ff8411156200024a576200024a62000193565b50506001821b620002a2565b5060208310610133831016604e8410600b84101617156200027b575081810a620002a2565b620002878383620001a9565b80600019048211156200029e576200029e62000193565b0290505b92915050565b60006200018c60ff841683620001f2565b8082028115828204841417620002a257620002a262000193565b61112d80620002e36000396000f3fe60806040526004361061011f5760003560e01c8063d0e30db0116100a0578063f0fc6bca11610064578063f0fc6bca1461032e578063f7c618c114610343578063f887ea4014610363578063ffb2c47914610383578063ffd49c84146103a357600080fd5b8063d0e30db0146102ad578063d4fda1f2146102b5578063e2d2e219146102e2578063ecd0c0c3146102f8578063efca2eed1461031857600080fd5b80634fab0ae8116100e75780634fab0ae8146101c557806366817df5146101db578063997664d714610208578063ab377daa1461021e578063ce7c2ac21461025657600080fd5b806311ce023d1461012457806314b6ca961461014d57806328fd31981461016f5780632d48e8961461018f5780633a98ef39146101af575b600080fd5b34801561013057600080fd5b5061013a600b5481565b6040519081526020015b60405180910390f35b34801561015957600080fd5b5061016d610168366004610e7d565b6103b9565b005b34801561017b57600080fd5b5061013a61018a366004610ea9565b610531565b34801561019b57600080fd5b5061016d6101aa366004610ecd565b6105bc565b3480156101bb57600080fd5b5061013a60075481565b3480156101d157600080fd5b5061013a600d5481565b3480156101e757600080fd5b5061013a6101f6366004610ea9565b60056020526000908152604090205481565b34801561021457600080fd5b5061013a60085481565b34801561022a57600080fd5b5061023e610239366004610eef565b6105de565b6040516001600160a01b039091168152602001610144565b34801561026257600080fd5b50610292610271366004610ea9565b60066020526000908152604090208054600182015460029092015490919083565b60408051938452602084019290925290820152606001610144565b61016d610608565b3480156102c157600080fd5b5061013a6102d0366004610ea9565b60046020526000908152604090205481565b3480156102ee57600080fd5b5061013a600a5481565b34801561030457600080fd5b5060005461023e906001600160a01b031681565b34801561032457600080fd5b5061013a60095481565b34801561033a57600080fd5b5061016d610897565b34801561034f57600080fd5b5060015461023e906001600160a01b031681565b34801561036f57600080fd5b5060025461023e906001600160a01b031681565b34801561038f57600080fd5b5061016d61039e366004610eef565b6108a2565b3480156103af57600080fd5b5061013a600c5481565b6000546001600160a01b031633146103d057600080fd5b6001600160a01b038216600090815260066020526040902054156103f7576103f7826109a7565b60008111801561041d57506001600160a01b038216600090815260066020526040902054155b1561048357600380546001600160a01b0384166000818152600460205260408120839055600183018455929092527fc2575a0e9e593c00f959f8c92f12db2869c3395a3b0502d05e2516446f71f85b0180546001600160a01b03191690911790556104b6565b801580156104a857506001600160a01b03821660009081526006602052604090205415155b156104b6576104b682610a64565b6001600160a01b0382166000908152600660205260409020546007546104e79183916104e191610b79565b90610b8e565b6007556001600160a01b038216600090815260066020526040902081905561050e81610b9a565b6001600160a01b0390921660009081526006602052604090206001019190915550565b6001600160a01b038116600090815260066020526040812054810361055857506000919050565b6001600160a01b03821660009081526006602052604081205461057a90610b9a565b6001600160a01b0384166000908152600660205260409020600101549091508082116105aa575060009392505050565b6105b48282610b79565b949350505050565b6000546001600160a01b031633146105d357600080fd5b600c91909155600d55565b600381815481106105ee57600080fd5b6000918252602090912001546001600160a01b0316905081565b6000546001600160a01b0316331461061f57600080fd5b6001546040516370a0823160e01b81523060048201526000916001600160a01b0316906370a0823190602401602060405180830381865afa158015610668573d6000803e3d6000fd5b505050506040513d601f19601f8201168201806040525081019061068c9190610f08565b60408051600280825260608201835292935060009290916020830190803683375050600254604080516315ab88c960e31b815290519394506001600160a01b039091169263ad5c4648925060048083019260209291908290030181865afa1580156106fb573d6000803e3d6000fd5b505050506040513d601f19601f8201168201806040525081019061071f9190610f21565b8160008151811061073257610732610f3e565b6001600160a01b039283166020918202929092010152600180548351921691839190811061076257610762610f3e565b6001600160a01b03928316602091820292909201015260025460405163b6f9de9560e01b815291169063b6f9de959034906107a890600090869030904290600401610f54565b6000604051808303818588803b1580156107c157600080fd5b505af11580156107d5573d6000803e3d6000fd5b50506001546040516370a0823160e01b81523060048201526000945061085593508692506001600160a01b03909116906370a0823190602401602060405180830381865afa15801561082b573d6000803e3d6000fd5b505050506040513d601f19601f8201168201806040525081019061084f9190610f08565b90610b79565b6008549091506108659082610b8e565b600855600754600b5461088f91610886916108809085610bb7565b90610bc3565b600a5490610b8e565b600a55505050565b6108a0336109a7565b565b6000546001600160a01b031633146108b957600080fd5b60035460008190036108c9575050565b6000805a905060005b84831080156108e057508381105b1561099f5783600e54106108f4576000600e555b6109266003600e548154811061090c5761090c610f3e565b6000918252602090912001546001600160a01b0316610bcf565b1561095d5761095d6003600e548154811061094357610943610f3e565b6000918252602090912001546001600160a01b03166109a7565b61097261096b5a8490610b79565b8490610b8e565b92505a600e8054919350600061098783610fd4565b9190505550808061099790610fd4565b9150506108d2565b505050505b50565b6001600160a01b03811660009081526006602052604081205490036109c95750565b60006109d482610531565b90508015610a60576009546109e99082610b8e565b600955600154610a03906001600160a01b03168383610c14565b6001600160a01b03821660009081526005602090815260408083204290556006909152902060020154610a369082610b8e565b6001600160a01b038316600090815260066020526040902060028101919091555461050e90610b9a565b5050565b60038054610a7490600190610fed565b81548110610a8457610a84610f3e565b60009182526020808320909101546001600160a01b0384811684526004909252604090922054600380549290931692918110610ac257610ac2610f3e565b600091825260208083209190910180546001600160a01b0319166001600160a01b03948516179055918316815260049182905260408120546003805491939291610b0e90600190610fed565b81548110610b1e57610b1e610f3e565b60009182526020808320909101546001600160a01b031683528201929092526040019020556003805480610b5457610b54611000565b600082815260209020810160001990810180546001600160a01b031916905501905550565b6000610b858284610fed565b90505b92915050565b6000610b858284611016565b6000610b88600b54610880600a5485610bb790919063ffffffff16565b6000610b858284611029565b6000610b858284611040565b600c546001600160a01b03821660009081526005602052604081205490914291610bf99190611016565b108015610b885750600d54610c0d83610531565b1192915050565b604080516001600160a01b038416602482015260448082018490528251808303909101815260649091019091526020810180516001600160e01b031663a9059cbb60e01b179052610c66908490610c6b565b505050565b6000610cc0826040518060400160405280602081526020017f5361666545524332303a206c6f772d6c6576656c2063616c6c206661696c6564815250856001600160a01b0316610d459092919063ffffffff16565b9050805160001480610ce1575080806020019051810190610ce19190611062565b610c665760405162461bcd60e51b815260206004820152602a60248201527f5361666545524332303a204552433230206f7065726174696f6e20646964206e6044820152691bdd081cdd58d8d9595960b21b60648201526084015b60405180910390fd5b60606105b4848460008585600080866001600160a01b03168587604051610d6c91906110a8565b60006040518083038185875af1925050503d8060008114610da9576040519150601f19603f3d011682016040523d82523d6000602084013e610dae565b606091505b5091509150610dbf87838387610dca565b979650505050505050565b60608315610e39578251600003610e32576001600160a01b0385163b610e325760405162461bcd60e51b815260206004820152601d60248201527f416464726573733a2063616c6c20746f206e6f6e2d636f6e74726163740000006044820152606401610d3c565b50816105b4565b6105b48383815115610e4e5781518083602001fd5b8060405162461bcd60e51b8152600401610d3c91906110c4565b6001600160a01b03811681146109a457600080fd5b60008060408385031215610e9057600080fd5b8235610e9b81610e68565b946020939093013593505050565b600060208284031215610ebb57600080fd5b8135610ec681610e68565b9392505050565b60008060408385031215610ee057600080fd5b50508035926020909101359150565b600060208284031215610f0157600080fd5b5035919050565b600060208284031215610f1a57600080fd5b5051919050565b600060208284031215610f3357600080fd5b8151610ec681610e68565b634e487b7160e01b600052603260045260246000fd5b600060808201868352602060808185015281875180845260a086019150828901935060005b81811015610f9e5784516001600160a01b031683529383019391830191600101610f79565b50506001600160a01b039690961660408501525050506060015292915050565b634e487b7160e01b600052601160045260246000fd5b600060018201610fe657610fe6610fbe565b5060010190565b81810381811115610b8857610b88610fbe565b634e487b7160e01b600052603160045260246000fd5b80820180821115610b8857610b88610fbe565b8082028115828204841417610b8857610b88610fbe565b60008261105d57634e487b7160e01b600052601260045260246000fd5b500490565b60006020828403121561107457600080fd5b81518015158114610ec657600080fd5b60005b8381101561109f578181015183820152602001611087565b50506000910152565b600082516110ba818460208701611084565b9190910192915050565b60208152600082518060208401526110e3816040850160208701611084565b601f01601f1916919091016040019291505056fea26469706673582212201f12228515cea1bb86891693806235e55888c47e54336a1e648532a3e196fb7964736f6c63430008130033",
  "linkReferences": {},
  "deployedLinkReferences": {}
}