{
  "_format": "hh-sol-artifact-1",
  "contractName": "DividendDistributor",
  "sourceName": "contracts/launchpad/utils/DividendDistributor.sol",
  "abi": [
    {
      "inputs": [
        {
          "internalType": "address",
          "name": "rewardToken_",
          "type": "address"
        },
        {
          "internalType": "address",
          "name": "router_",
          "type": "address"
        }
      ],
      "stateMutability": "nonpayable",
      "type": "constructor"
    },
    {
      "inputs": [],
      "name": "_token",
      "outputs": [
        {
          "internalType": "address",
          "name": "",
          "type": "address"
        }
      ],
      "stateMutability": "view",
      "type": "function"
    },
    {
      "inputs": [],
      "name": "claimDividend",
      "outputs": [],
      "stateMutability": "nonpayable",
      "type": "function"
    },
    {
      "inputs": [],
      "name": "deposit",
      "outputs": [],
      "stateMutability": "payable",
      "type": "function"
    },
    {
      "inputs": [],
      "name": "dividendsPerShare",
      "outputs": [
        {
          "internalType": "uint256",
          "name": "",
          "type": "uint256"
        }
      ],
      "stateMutability": "view",
      "type": "function"
    },
    {
      "inputs": [],
      "name": "dividendsPerShareAccuracyFactor",
      "outputs": [
        {
          "internalType": "uint256",
          "name": "",
          "type": "uint256"
        }
      ],
      "stateMutability": "view",
      "type": "function"
    },
    {
      "inputs": [
        {
          "internalType": "address",
          "name": "shareholder",
          "type": "address"
        }
      ],
      "name": "getUnpaidEarnings",
      "outputs": [
        {
          "internalType": "uint256",
          "name": "",
          "type": "uint256"
        }
      ],
      "stateMutability": "view",
      "type": "function"
    },
    {
      "inputs": [],
      "name": "minDistribution",
      "outputs": [
        {
          "internalType": "uint256",
          "name": "",
          "type": "uint256"
        }
      ],
      "stateMutability": "view",
      "type": "function"
    },
    {
      "inputs": [],
      "name": "minPeriod",
      "outputs": [
        {
          "internalType": "uint256",
          "name": "",
          "type": "uint256"
        }
      ],
      "stateMutability": "view",
      "type": "function"
    },
    {
      "inputs": [
        {
          "internalType": "uint256",
          "name": "gas",
          "type": "uint256"
        }
      ],
      "name": "process",
      "outputs": [],
      "stateMutability": "nonpayable",
      "type": "function"
    },
    {
      "inputs": [],
      "name": "rewardToken",
      "outputs": [
        {
          "internalType": "contract IERC20Metadata",
          "name": "",
          "type": "address"
        }
      ],
      "stateMutability": "view",
      "type": "function"
    },
    {
      "inputs": [],
      "name": "router",
      "outputs": [
        {
          "internalType": "contract IUniswapV2Router02",
          "name": "",
          "type": "address"
        }
      ],
      "stateMutability": "view",
      "type": "function"
    },
    {
      "inputs": [
        {
          "internalType": "uint256",
          "name": "_minPeriod",
          "type": "uint256"
        },
        {
          "internalType": "uint256",
          "name": "_minDistribution",
          "type": "uint256"
        }
      ],
      "name": "setDistributionCriteria",
      "outputs": [],
      "stateMutability": "nonpayable",
      "type": "function"
    },
    {
      "inputs": [
        {
          "internalType": "address",
          "name": "shareholder",
          "type": "address"
        },
        {
          "internalType": "uint256",
          "name": "amount",
          "type": "uint256"
        }
      ],
      "name": "setShare",
      "outputs": [],
      "stateMutability": "nonpayable",
      "type": "function"
    },
    {
      "inputs": [
        {
          "internalType": "address",
          "name": "",
          "type": "address"
        }
      ],
      "name": "shareholderClaims",
      "outputs": [
        {
          "internalType": "uint256",
          "name": "",
          "type": "uint256"
        }
      ],
      "stateMutability": "view",
      "type": "function"
    },
    {
      "inputs": [
        {
          "internalType": "address",
          "name": "",
          "type": "address"
        }
      ],
      "name": "shareholderIndexes",
      "outputs": [
        {
          "internalType": "uint256",
          "name": "",
          "type": "uint256"
        }
      ],
      "stateMutability": "view",
      "type": "function"
    },
    {
      "inputs": [
        {
          "internalType": "uint256",
          "name": "",
          "type": "uint256"
        }
      ],
      "name": "shareholders",
      "outputs": [
        {
          "internalType": "address",
          "name": "",
          "type": "address"
        }
      ],
      "stateMutability": "view",
      "type": "function"
    },
    {
      "inputs": [
        {
          "internalType": "address",
          "name": "",
          "type": "address"
        }
      ],
      "name": "shares",
      "outputs": [
        {
          "internalType": "uint256",
          "name": "amount",
          "type": "uint256"
        },
        {
          "internalType": "uint256",
          "name": "totalExcluded",
          "type": "uint256"
        },
        {
          "internalType": "uint256",
          "name": "totalRealised",
          "type": "uint256"
        }
      ],
      "stateMutability": "view",
      "type": "function"
    },
    {
      "inputs": [],
      "name": "totalDistributed",
      "outputs": [
        {
          "internalType": "uint256",
          "name": "",
          "type": "uint256"
        }
      ],
      "stateMutability": "view",
      "type": "function"
    },
    {
      "inputs": [],
      "name": "totalDividends",
      "outputs": [
        {
          "internalType": "uint256",
          "name": "",
          "type": "uint256"
        }
      ],
      "stateMutability": "view",
      "type": "function"
    },
    {
      "inputs": [],
      "name": "totalShares",
      "outputs": [
        {
          "internalType": "uint256",
          "name": "",
          "type": "uint256"
        }
      ],
      "stateMutability": "view",
      "type": "function"
    }
  ],
  "bytecode": "0x60806040523480156200001157600080fd5b50604051620014103803806200141083398101604081905262000034916200012f565b60008054336001600160a01b0319918216179091556001805482166001600160a01b0385811691821790925560028054909316918416919091179091556ec097ce7bc90715b34b9f1000000000600b55610e10600c556040805163313ce56760e01b8152905163313ce567916004808201926020929091908290030181865afa158015620000c6573d6000803e3d6000fd5b505050506040513d601f19601f82011682018060405250810190620000ec919062000167565b620000f990600a620002a8565b62000106906001620002b9565b600d5550620002d39050565b80516001600160a01b03811681146200012a57600080fd5b919050565b600080604083850312156200014357600080fd5b6200014e8362000112565b91506200015e6020840162000112565b90509250929050565b6000602082840312156200017a57600080fd5b815160ff811681146200018c57600080fd5b9392505050565b634e487b7160e01b600052601160045260246000fd5b600181815b80851115620001ea578160001904821115620001ce57620001ce62000193565b80851615620001dc57918102915b93841c9390800290620001ae565b509250929050565b6000826200020357506001620002a2565b816200021257506000620002a2565b81600181146200022b5760028114620002365762000256565b6001915050620002a2565b60ff8411156200024a576200024a62000193565b50506001821b620002a2565b5060208310610133831016604e8410600b84101617156200027b575081810a620002a2565b620002878383620001a9565b80600019048211156200029e576200029e62000193565b0290505b92915050565b60006200018c60ff841683620001f2565b8082028115828204841417620002a257620002a262000193565b61112d80620002e36000396000f3fe60806040526004361061011f5760003560e01c8063d0e30db0116100a0578063f0fc6bca11610064578063f0fc6bca1461032e578063f7c618c114610343578063f887ea4014610363578063ffb2c47914610383578063ffd49c84146103a357600080fd5b8063d0e30db0146102ad578063d4fda1f2146102b5578063e2d2e219146102e2578063ecd0c0c3146102f8578063efca2eed1461031857600080fd5b80634fab0ae8116100e75780634fab0ae8146101c557806366817df5146101db578063997664d714610208578063ab377daa1461021e578063ce7c2ac21461025657600080fd5b806311ce023d1461012457806314b6ca961461014d57806328fd31981461016f5780632d48e8961461018f5780633a98ef39146101af575b600080fd5b34801561013057600080fd5b5061013a600b5481565b6040519081526020015b60405180910390f35b34801561015957600080fd5b5061016d610168366004610e7d565b6103b9565b005b34801561017b57600080fd5b5061013a61018a366004610ea9565b610531565b34801561019b57600080fd5b5061016d6101aa366004610ecd565b6105bc565b3480156101bb57600080fd5b5061013a60075481565b3480156101d157600080fd5b5061013a600d5481565b3480156101e757600080fd5b5061013a6101f6366004610ea9565b60056020526000908152604090205481565b34801561021457600080fd5b5061013a60085481565b34801561022a57600080fd5b5061023e610239366004610eef565b6105de565b6040516001600160a01b039091168152602001610144565b34801561026257600080fd5b50610292610271366004610ea9565b60066020526000908152604090208054600182015460029092015490919083565b60408051938452602084019290925290820152606001610144565b61016d610608565b3480156102c157600080fd5b5061013a6102d0366004610ea9565b60046020526000908152604090205481565b3480156102ee57600080fd5b5061013a600a5481565b34801561030457600080fd5b5060005461023e906001600160a01b031681565b34801561032457600080fd5b5061013a60095481565b34801561033a57600080fd5b5061016d610897565b34801561034f57600080fd5b5060015461023e906001600160a01b031681565b34801561036f57600080fd5b5060025461023e906001600160a01b031681565b34801561038f57600080fd5b5061016d61039e366004610eef565b6108a2565b3480156103af57600080fd5b5061013a600c5481565b6000546001600160a01b031633146103d057600080fd5b6001600160a01b038216600090815260066020526040902054156103f7576103f7826109a7565b60008111801561041d57506001600160a01b038216600090815260066020526040902054155b1561048357600380546001600160a01b0384166000818152600460205260408120839055600183018455929092527fc2575a0e9e593c00f959f8c92f12db2869c3395a3b0502d05e2516446f71f85b0180546001600160a01b03191690911790556104b6565b801580156104a857506001600160a01b03821660009081526006602052604090205415155b156104b6576104b682610a64565b6001600160a01b0382166000908152600660205260409020546007546104e79183916104e191610b79565b90610b8e565b6007556001600160a01b038216600090815260066020526040902081905561050e81610b9a565b6001600160a01b0390921660009081526006602052604090206001019190915550565b6001600160a01b038116600090815260066020526040812054810361055857506000919050565b6001600160a01b03821660009081526006602052604081205461057a90610b9a565b6001600160a01b0384166000908152600660205260409020600101549091508082116105aa575060009392505050565b6105b48282610b79565b949350505050565b6000546001600160a01b031633146105d357600080fd5b600c91909155600d55565b600381815481106105ee57600080fd5b6000918252602090912001546001600160a01b0316905081565b6000546001600160a01b0316331461061f57600080fd5b6001546040516370a0823160e01b81523060048201526000916001600160a01b0316906370a0823190602401602060405180830381865afa158015610668573d6000803e3d6000fd5b505050506040513d601f19601f8201168201806040525081019061068c9190610f08565b60408051600280825260608201835292935060009290916020830190803683375050600254604080516315ab88c960e31b815290519394506001600160a01b039091169263ad5c4648925060048083019260209291908290030181865afa1580156106fb573d6000803e3d6000fd5b505050506040513d601f19601f8201168201806040525081019061071f9190610f21565b8160008151811061073257610732610f3e565b6001600160a01b039283166020918202929092010152600180548351921691839190811061076257610762610f3e565b6001600160a01b03928316602091820292909201015260025460405163b6f9de9560e01b815291169063b6f9de959034906107a890600090869030904290600401610f54565b6000604051808303818588803b1580156107c157600080fd5b505af11580156107d5573d6000803e3d6000fd5b50506001546040516370a0823160e01b81523060048201526000945061085593508692506001600160a01b03909116906370a0823190602401602060405180830381865afa15801561082b573d6000803e3d6000fd5b505050506040513d601f19601f8201168201806040525081019061084f9190610f08565b90610b79565b6008549091506108659082610b8e565b600855600754600b5461088f91610886916108809085610bb7565b90610bc3565b600a5490610b8e565b600a55505050565b6108a0336109a7565b565b6000546001600160a01b031633146108b957600080fd5b60035460008190036108c9575050565b6000805a905060005b84831080156108e057508381105b1561099f5783600e54106108f4576000600e555b6109266003600e548154811061090c5761090c610f3e565b6000918252602090912001546001600160a01b0316610bcf565b1561095d5761095d6003600e548154811061094357610943610f3e565b6000918252602090912001546001600160a01b03166109a7565b61097261096b5a8490610b79565b8490610b8e565b92505a600e8054919350600061098783610fd4565b9190505550808061099790610fd4565b9150506108d2565b505050505b50565b6001600160a01b03811660009081526006602052604081205490036109c95750565b60006109d482610531565b90508015610a60576009546109e99082610b8e565b600955600154610a03906001600160a01b03168383610c14565b6001600160a01b03821660009081526005602090815260408083204290556006909152902060020154610a369082610b8e565b6001600160a01b038316600090815260066020526040902060028101919091555461050e90610b9a565b5050565b60038054610a7490600190610fed565b81548110610a8457610a84610f3e565b60009182526020808320909101546001600160a01b0384811684526004909252604090922054600380549290931692918110610ac257610ac2610f3e565b600091825260208083209190910180546001600160a01b0319166001600160a01b03948516179055918316815260049182905260408120546003805491939291610b0e90600190610fed565b81548110610b1e57610b1e610f3e565b60009182526020808320909101546001600160a01b031683528201929092526040019020556003805480610b5457610b54611000565b600082815260209020810160001990810180546001600160a01b031916905501905550565b6000610b858284610fed565b90505b92915050565b6000610b858284611016565b6000610b88600b54610880600a5485610bb790919063ffffffff16565b6000610b858284611029565b6000610b858284611040565b600c546001600160a01b03821660009081526005602052604081205490914291610bf99190611016565b108015610b885750600d54610c0d83610531565b1192915050565b604080516001600160a01b038416602482015260448082018490528251808303909101815260649091019091526020810180516001600160e01b031663a9059cbb60e01b179052610c66908490610c6b565b505050565b6000610cc0826040518060400160405280602081526020017f5361666545524332303a206c6f772d6c6576656c2063616c6c206661696c6564815250856001600160a01b0316610d459092919063ffffffff16565b9050805160001480610ce1575080806020019051810190610ce19190611062565b610c665760405162461bcd60e51b815260206004820152602a60248201527f5361666545524332303a204552433230206f7065726174696f6e20646964206e6044820152691bdd081cdd58d8d9595960b21b60648201526084015b60405180910390fd5b60606105b4848460008585600080866001600160a01b03168587604051610d6c91906110a8565b60006040518083038185875af1925050503d8060008114610da9576040519150601f19603f3d011682016040523d82523d6000602084013e610dae565b606091505b5091509150610dbf87838387610dca565b979650505050505050565b60608315610e39578251600003610e32576001600160a01b0385163b610e325760405162461bcd60e51b815260206004820152601d60248201527f416464726573733a2063616c6c20746f206e6f6e2d636f6e74726163740000006044820152606401610d3c565b50816105b4565b6105b48383815115610e4e5781518083602001fd5b8060405162461bcd60e51b8152600401610d3c91906110c4565b6001600160a01b03811681146109a457600080fd5b60008060408385031215610e9057600080fd5b8235610e9b81610e68565b946020939093013593505050565b600060208284031215610ebb57600080fd5b8135610ec681610e68565b9392505050565b60008060408385031215610ee057600080fd5b50508035926020909101359150565b600060208284031215610f0157600080fd5b5035919050565b600060208284031215610f1a57600080fd5b5051919050565b600060208284031215610f3357600080fd5b8151610ec681610e68565b634e487b7160e01b600052603260045260246000fd5b600060808201868352602060808185015281875180845260a086019150828901935060005b81811015610f9e5784516001600160a01b031683529383019391830191600101610f79565b50506001600160a01b039690961660408501525050506060015292915050565b634e487b7160e01b600052601160045260246000fd5b600060018201610fe657610fe6610fbe565b5060010190565b81810381811115610b8857610b88610fbe565b634e487b7160e01b600052603160045260246000fd5b80820180821115610b8857610b88610fbe565b8082028115828204841417610b8857610b88610fbe565b60008261105d57634e487b7160e01b600052601260045260246000fd5b500490565b60006020828403121561107457600080fd5b81518015158114610ec657600080fd5b60005b8381101561109f578181015183820152602001611087565b50506000910152565b600082516110ba818460208701611084565b9190910192915050565b60208152600082518060208401526110e3816040850160208701611084565b601f01601f1916919091016040019291505056fea26469706673582212201f12228515cea1bb86891693806235e55888c47e54336a1e648532a3e196fb7964736f6c63430008130033",
  "linkReferences": {},
  "deployedLinkReferences": {}
}